:020000022000DC
:1060000000000120B5620200DD620200DF620200D2
:10601000E1620200E3620200E562020000000000AB
:10602000000000000000000000000000E762020025
:10603000E962020000000000EB620200ED62020073
:10604000758B0200EF62020075940200EF6202009D
:10605000EF620200EF620200898F0200EF6202002D
:10606000EF620200EF620200EF620200EF620200E4
:10607000EF620200EF620200EF620200EF620200D4
:10608000EF62020079730200EF620200EF62020029
:1060900019740200EF620200B9B20200EF6202005E
:1060A000EF620200EF620200EF620200EF620200A4
:1060B000EF620200EF62020000000000000000003A
:1060C000EF620200EF620200EF620200EF62020084
:1060D000EF620200EF620200EF62020000000000C7
:1060E00000000000000000000000000000000000B0
:1060F00000000000000000000000000000000000A0
:10610000000000000000000000000000000000008F
:10611000000000000000000000000000000000007F
:10612000000000000000000000000000000000006F
:10613000000000000000000000000000000000005F
:10614000000000000000000000000000000000004F
:10615000000000000000000000000000000000003F
:10616000000000000000000000000000000000002F
:10617000000000000000000000000000000000001F
:10618000000000000000000000000000000000000F
:1061900000000000000000000000000000000000FF
:1061A00000000000000000000000000000000000EF
:1061B00000000000000000000000000000000000DF
:1061C00000000000000000000000000000000000CF
:1061D00000000000000000000000000000000000BF
:1061E00000000000000000000000000000000000AF
:1061F000000000000000000000000000000000009F
:1062000010B5054C237833B9044B13B10448AFF3F0
:1062100000800123237010BD98230020000000009F
:10622000E8C2020008B5034B1BB103490348AFF3B2
:10623000008008BD000000009C230020E8C202008E
:10624000154B002B08BF134B9D46A3F5803A002148
:106250008B460F461348144A121A05F0E9F90F4B02
:10626000002B00D098470E4B002B00D09847002001
:10627000002104000D000D48002802D00C48AFF3A7
:10628000008005F0A3F92000290003F0E9FE05F0E5
:1062900089F900BF00000800000001200000000094
:1062A0000000000098230020A82C0020000000001F
:1062B000000000000649074A074B9B1A03DD043B18
:1062C000C858D050FBDC02F00BF9FFF7B9FF000013
:1062D000C4C30200B822002098230020FEE7FEE796
:1062E000FEE7FEE7FEE7FEE7FEE7FEE7FEE7FEE786
:1062F000F0B595B000241D460E460846174601F03D
:10630000E7FF304623460822099505A91A9D0897FC
:106310000D950A948DF82C400C9402F035F89DF8F8
:1063200014308DF81140DDE9061003F00302012A54
:10633000CDE9020128D0022A04D0304601F0CCFF7A
:1063400015B0F0BDBDF81650C3F3C2038DF8103080
:10635000C5F389150827082D2C4628BF08243B467D
:1063600022460EA9304602F00FF82D1B214608AB3D
:1063700002AA0EA8274400F0E1FD002DEBD1304623
:1063800001F0AAFF15B0F0BDBDF81470059DC7F36C
:106390008312C3F3C2040EA93046920008238DF87D
:1063A0001040C7F3831701F0EFFFC5F3952508AB45
:1063B0003A4628460EA9009302AB00F047FD30464E
:1063C00001F08AFF15B0F0BD014B01221A70704731
:1063D000F8230020704700BF00B583B0044B009342
:1063E000044A4023FFF784FF03B05DF804FB00BFBD
:1063F000F9630200B823002038B50E480E4D03782B
:106400000E4CEB5C00252570D2B253B1043003F082
:10641000D5FC58B90A4B1B7813B12378002BFCD05C
:1064200038BD0C3003F07AFA0028F3D000F05EFF9C
:10643000F0E700BFB8220020A42C0020F8230020A1
:10644000B42300202DE9704319481A4A0378D35C1D
:1064500088B02BB3043003F047FC174D0FCD6C46CA
:106460000FC495E80F004FF0EB7684E80F004FF073
:1064700006084FF0FF394FF0FF344FF0FF350C485E
:10648000069600226946CDE90089CDE9024502F071
:1064900005FB48B9094B00221A7008B0BDE87083AB
:1064A0000C3003F0D5F9D8E700F020FFF2E700BF89
:1064B000B8220020A42C00206CB60200B4230020D7
:1064C000F0B5154D0FCD89B06C460FC495E80F009F
:1064D0004FF0EB7C84E80F0006264FF0FF374FF0BB
:1064E000FF344FF0FF350D4A0D48CDF818C069460E
:1064F000CDE90067CDE9024502F0D0FA20B9094B99
:1065000001221A7009B0F0BD00F0F0FE054B012227
:106510001A7009B0F0BD00BF6CB60200C96302007A
:10652000B8220020B423002010B5054CFFF7C8FFA7
:106530002046042100F00EFC0123637210BD00BF51
:10654000CC22002038B50F4B0F4800240025002234
:10655000FF21C3E90045C3F81824996083F820247B
:10656000C3F8142401F068FE58B9084A084BD21A3F
:10657000D20806D00749034621F8233001339A4256
:10658000FAD138BDD02400208CC302008CC3020095
:1065900024C302006023002099B10E4B0E495B1A00
:1065A000DB0815D030B400220C4D02E001329342DA
:1065B0000BD035F822408442F8D151F8320030BC7B
:1065C0007047054951F830007047002030BC7047D3
:1065D000184670478CC3020024C3020062230020C7
:1065E000094B013903EBC00003290BD8DFE801F0A8
:1065F0000402080604207047022070474079704763
:10660000007970470020704724C302002DE9F0474D
:106610008E4CD4E900239A4284B05FD00023C4F8A2
:106620001834BFF34F8FD4E90125236802EA050629
:10663000F11C04EB8101087887072ED010F00407C5
:106640003BD104EB8606511CF3680193294004EB0F
:10665000810103F00303C9680291022B02F10206D3
:1066600075D0012B3ED0D4F8105435B12B68284694
:106670009B6898476D68002DF8D1754B754918884F
:10668000000440F0020000F0EBF8D4E90030C01A3A
:1066900018BF012004B0BDE8F08746070DD4488834
:1066A0000988013202EB901202EB91129342BDD89D
:1066B0000020636004B0BDE8F08700F0030001280B
:1066C00006D00228F2D14988023202EB9112EDE79E
:1066D00009880232C1F383110A44E7E7002004B0BD
:1066E000BDE8F087BDF804305B48C3F38312062A87
:1066F00028BF0622911C62F389138900ADF804308B
:1067000001F09CFD80460028ADD001F0E1FD3B4644
:10671000082201A9404601F00BFEBDF8043013F435
:10672000707F56D031462940BB000331083304EB5B
:1067300081010422404601F0FBFDBDF80430013721
:10674000C3F38313BB4206F10106EBD841E0BDF869
:1067500006304148C3F38919B9F1500FCA4628BF22
:106760004FF0500A6AF38F130AF10801ADF80630B2
:1067700001F064FD804600283FF475AF01F0A8FDEC
:106780003B46082201A9404601F0D2FD25EA060356
:106790000133BAEB830F4FEA83074CD9002F43D064
:1067A00006EA05010331AAEB070A04EB810108237D
:1067B0003A4640465FFA8AFA01F0BAFD2749524646
:1067C00007F10803404601F0B3FD09F1030906EBA8
:1067D0009906D4F818341BBBD4F810544DB16B7A19
:1067E00028464146C3B12B681B6898476D68002D49
:1067F000F5D1404601F070FD00230DF103008DF846
:10680000033001F0F1F8D4F8183403B966609DF84C
:10681000030001F00FF938E76D68002DDFD1E8E7DC
:10682000404601F059FD30E70C49524608234046E6
:1068300001F07EFDC9E706EA0501033104EB8101A1
:1068400052460823404601F073FDBEE7D0240020E5
:106850007423002098B602008CC30200DC240020C0
:106860002DE9F04F614C87B0002306460DF10B0077
:106870008DF80B30A568884601F0B6F8D4E90123FD
:1068800027681A440132D21B012A7FD804F21C491E
:1068900004F5836B04F2144A31E01EF0040C5DD160
:1068A00004EB800003F1010EC26803920EEA0101BD
:1068B00004EB810102F00302012AC96803F102031B
:1068C00045D0022A41D1BDF80E20C2F3891203320D
:1068D000090C03EB92035046CDE9001301F036F9A1
:1068E000009980B3019B6360484601F003F9D4E945
:1068F0000113226819440131891A012947D801215D
:10690000484601F0F7F8584601F010F9504601F0FA
:106910000DF9D4E9013103EA0100C21C04EB820243
:1069200092F800E01EF0030FB7D11EF0040F03F140
:10693000010C13D1538812880CEB931303EB9213C1
:1069400003EA0100E9E74846CFE76146C3E7BDF83F
:106950000C20C2F38312090C1344BCE70EF0030EA3
:10696000BEF1010F0AD0BEF1020F03F1020CD4D127
:1069700053880CEB931303EA0100CEE7128802332D
:10698000C2F38312134403EA0100C6E73A461340F8
:106990000333023205219DF80B0044F823102260D6
:1069A00001F048F80021124801F07AF880F3100055
:1069B000F1007B1C2B4001F038013D4004EB8303C8
:1069C00041F001010004033540EA164641EA8821FE
:1069D000DE6044F8251094F820341BB1FFF716FE52
:1069E0000028FBD107B0BDE8F08F00BFD024002005
:1069F000EC2800202DE9F04FDFF8A4B189B0002386
:106A000006460DF1130017468DF81330DBF80840E9
:106A1000039100F0E9FFDBE90123DBF800501A44A1
:106A20000132521B022A00F282800BF21C480BF545
:106A3000836A0BF2144933E01EF0040C5FD10BEBB8
:106A4000800003F1010EC26805920EEA01010BEB12
:106A5000810102F00302012AC96803F1020347D051
:106A6000022A43D1BDF81620C2F389120332090C61
:106A700003EB92034846CDE9013101F067F8029932
:106A800090B3019BCBF80430404601F033F8DBE9CA
:106A90000113DBF8002019440131891A022947D873
:106AA0000121404601F026F8504601F03FF84846E3
:106AB00001F03CF8DBE9013103EA0100C21C0BEBF9
:106AC000820292F800E01EF0030FB5D11EF0040F11
:106AD00003F1010C13D1538812880CEB931303EBD1
:106AE000921303EA0100E9E74046CEE76146C1E7B9
:106AF000BDF81420C2F38312090C1344BAE70EF058
:106B0000030EBEF1010F0AD0BEF1020F03F1020C19
:106B1000D4D153880CEB931303EA0100CEE712881B
:106B20000233C2F38312134403EA0100C6E72A4684
:106B300013400333033245219DF813004BF8231013
:106B4000CBF8002000F076FFAB1C23400BEB830357
:106B500000211248DF6000F0A3FF80F31000F10075
:106B60006B1C2340039A01F038012C400BEB83038C
:106B700041F041010004033440EA164641EA822113
:106B8000DE604BF824109BF820341BB1FFF73EFD6C
:106B90000028FBD109B0BDE8F08F00BFEC28002031
:106BA000D02400202DE9F04F684C89B0002607461C
:106BB0000DF11300CDE902238DF81360A568884616
:106BC00000F012FFD4E9012326681A440132921B17
:106BD000032A7FD804F21C4904F5836B04F2144A9B
:106BE00031E01EF0040C5DD104EB800003F1010ED6
:106BF000C26805920EEA010104EB810102F0030272
:106C0000012AC96803F1020345D0022A41D1BDF827
:106C10001620C2F389120332090C03EB920350468B
:106C2000CDE9001300F092FF009980B3019B6360EF
:106C3000484600F05FFFD4E901132268194401318E
:106C4000891A032947D80121484600F053FF5846C6
:106C500000F06CFF504600F069FFD4E9013103EA0F
:106C60000100C21C04EB820292F800E01EF0030F48
:106C7000B7D11EF0040F03F1010C13D15388128811
:106C80000CEB931303EB921303EA0100E9E7484688
:106C9000CFE76146C3E7BDF81420C2F38312090CA5
:106CA0001344BCE70EF0030EBEF1010F0AD0BEF193
:106CB000020F03F1020CD4D153880CEB931303EAB7
:106CC0000100CEE712880233C2F38312134403EAB1
:106CD0000100C6E7324613400333043285219DF894
:106CE000130044F82310226000F0A4FEB21C2A40D6
:106CF000F31C2B4004EB820204EB830C029BD36059
:106D00000021039B1248CCF80C3000F0C9FE80F340
:106D10001000F900731C2B4001F03801354004EBE2
:106D2000830341F081010004033540EA174741EA3B
:106D30008821DF6044F8251094F820341BB1FFF758
:106D400065FC0028FBD109B0BDE8F08FD0240020FD
:106D5000EC28002030B4124DD5F810140446002061
:106D600069B10B4601E05B684BB11A7A8242FAD1F5
:106D700001300A28F4D14FF0FF3030BC7047207248
:106D8000D5F8103433B15B686360D5F810345C60BB
:106D900030BC7047C5F81044636030BC704700BF1A
:106DA000D024002038B5084BD3F81044012583F8CF
:106DB00020543CB12368657220465B68984764683C
:106DC000002CF7D138BD00BFD024002030B5C388D7
:106DD00085B004460D461BBB217A05291ED0627A78
:106DE00082B9134AA08852F8212003920021FFF7AC
:106DF000D3FB039A0F490346284605B0BDE830404F
:106E000000F020BFA088FFF7EBFB0B4B0B4953F8BA
:106E10002020284600F016FF217AE2E705B030BDB9
:106E2000074A00920749084A284600F00BFFD3E7BB
:106E300090B70200F0B602006CB70200ECB6020098
:106E4000E4B60200CCB60200C4B602002DE9F0435D
:106E500085B04FF0000C0C9C814694F80C8084F8AF
:106E60000CC00E461746184621461D46FFF7AEFFDA
:106E7000062F09D8DFE807F0042E343B444F1F00EB
:106E80004946204600F0DEFE2B7A052B05D06B7AB2
:106E90005BB92749204600F0D5FE204600F0C6FE2B
:106EA00084F80C8005B0BDE8F083224A22492046D0
:106EB00000F0C8FEEDE7D6E90413F2680393B36867
:106EC0000291CDE900324946D6E90023204600F080
:106ED000B9FED9E732684946204600F0B3FED3E751
:106EE000D6E900234946204600F0ACFECCE7B36863
:106EF0000093D6E900234946204600F0A3FEC3E7ED
:106F0000D6E9023201920093D6E900234946204691
:106F100000F098FEB8E7D6E90321B3680291CDE905
:106F200000324946D6E90023204600F08BFEABE74D
:106F3000FCB60200E4B60200ECB60200082900D953
:106F400070472DE9F04F9B4683B000241B7B8BF8E4
:106F50000C400D4606465946104690460193DFF810
:106F6000C8902A4FFFF732FF05E0325D013400F090
:106F700069FE082C09D0A54239465846F5D849463D
:106F8000013400F05FFE082CF5D12149DFF89C9018
:106F9000204F214C584600F055FE4FF0000A0EE0FD
:106FA00016F80A2012F807C01CF0970F08BF2E220F
:106FB0000AF1010A00F046FEBAF1080F0BD0554560
:106FC00021465846ECD849460AF1010A00F03AFE3B
:106FD000BAF1080FF3D198F80830052B02D098F8D1
:106FE000093063B90D49584600F02CFE584600F0B0
:106FF0001DFE019B8BF80C3003B0BDE8F08F084AF2
:107000000849584600F01EFEECE700BF00B702003A
:107010000CB70200E1C1020010B70200FCB602008A
:10702000E4B60200ECB6020008B70200F8B60200AF
:107030002DE9F04F3D4B93F800E087B0BEF1000F13
:107040005FD00027DFF8F08002973C46012506E07C
:10705000029B013302939DF80840A64551D9344B59
:10706000D8F800101E68D8F8042016F83400A0F1F3
:10707000200BC0F1200305FA0BFB25FA03F34BEAC2
:10708000030305FA00FC01EA0C0902EA030A06EB15
:10709000C40759EA0A0B0397DAD021EA0C0122EA65
:1070A0000303C8E9001301F065FF16F83430214AE4
:1070B000C3F1200CD2E90067A3F1200E614600FA6B
:1070C0000EF405FA0EF225FA01F105FA03FE20FA94
:1070D0000CFC0A430EEA060144EA0C0404913A400F
:1070E00000FA03F1009101940592DDE90412DDE953
:1070F00000BC624508BF594506D00C4B93F800E030
:10710000A6E707B0BDE8F08F03994A68002AF4D0DB
:107110004978A1F10101B1FA81F14909091AB1FADD
:1071200081F1490918469047E7E700BFF42800209D
:107130003029002020290020282900202DE9F843AB
:107140008046224800F014FCE0B9214D4FF0010CBC
:10715000D5E90023A8F12004C8F120012CFA01F19F
:107160000CFA04F40C430CFA08F902EA090603EAE3
:10717000040756EA070107D022EA090223EA0404B9
:10718000C5E90024BDE8F883404601F0F3FE114B49
:107190001E68A8B9586826EA090620EA0400D5E95D
:1071A00000211E600C4E586042EA09020C432A601E
:1071B00031686C600548BDE8F843002200F082BBEE
:1071C000586849EA06062043E9E700BFFC2800208A
:1071D0002829002020290020F8280020042A3BD953
:1071E0002DE9F04182B0144605460E4601F044FDFB
:1071F00068B31E491E4A1F4B0D601F481F491C6083
:10720000167000230022741EC0E90023C1E9002388
:10721000E4B21EB3DFF8708005EBC4040027032638
:1072200002E0AC421AD01C46A37820788DF80530D5
:10723000424601A98DF806708DF8046001F026FD24
:10724000A4F108030028ECD002B0BDE8F08101F001
:10725000C7FC0028CDD0F7E707207047084A094847
:10726000002100F01DFB02B0BDE8F08130290020B4
:10727000F4280020F82800202029002028290020B8
:1072800031700200A4B702003D71020070B5084DD4
:107290002B785BB1074E00243368012113F83400CA
:1072A00001F0D8FD2B780134A342F5D8002070BD41
:1072B000F42800203029002070B5094D2B7853B1F7
:1072C000084E0024336813F8340001F021FE2B78B7
:1072D0000134A342F6D8BDE87040034800F048BB33
:1072E000F428002030290020FC28002000B585B0BB
:1072F0000346002101AA44F20100CDE901110393E4
:1073000000F004F805B05DF804FB00BF10B572B6DC
:10731000FFF748FDFFF77AF90028FBD1104C11491F
:107320002088000440F00100FFF79AFA0E4B1B681A
:10733000DB0700D500BE20880C49000440F00200A5
:10734000FFF78EFABFF34F8F09490A4BCA6802F460
:10735000E0621343CB60BFF34F8F00BFFDE700BF78
:1073600074230020A8B70200F0ED00E0B4B70200DB
:1073700000ED00E00400FA05F8B52049204B002498
:10738000C1F84041C1F84441C1F84841C1F84C41FD
:10739000C1F80041C1F804411B6833B31948D1F862
:1073A000045501681A686D1A25F07F45AA422746E0
:1073B0000DD8197CDE69AD1A144419B1D3E9052042
:1073C0001F7490471EB133461A68AA42F1D90E497C
:1073D0000E4A0B7812789A4208D00D490D4A41F8AE
:1073E00023404FF48013C2F80031F8BD531CDBB2C8
:1073F000022B08BF00230B70EFE700BF0010014015
:10740000542A0020502A00204D2A00204C2A002017
:10741000442A002000E100E02DE9F04FB34AB449CE
:1074200013780978994285B000F088810133DBB286
:10743000022B08BF0023AF481370AF4A0568DFF87E
:10744000D08252F82310D8F800606B1823F07F43E5
:107450000360002E00F0C1810020074604468446E8
:107460003346AE4613E0D868DD69C3F800C0891A18
:10747000144438B10EEB040222F07F42C3E901202C
:10748000DF611F460120002D00F05F812B461A6846
:107490008A42E8D9002800F08B81C8F8003099466C
:1074A000521A1A6001230093944B954EDFF864A2A0
:1074B00043F0010301934D464FF0000B002F31D0F4
:1074C000D7E901303C46FF698A4ADFF84CC21268AE
:1074D000991A21F07F41614500F2DD800B1823608D
:1074E00000220121C4E90122E2612174002D00F093
:1074F000F3802A689A4280F0E880294605E0D1F8B6
:1075000000E09E4580F0CF8072460846C9699C46DF
:107510009B1A0029F3D12360E161C4612C46254602
:10752000002FCDD170783378984247D09C460CEB31
:107530004C0CB27806EBCC0C591CCBB29A429CF89E
:107540000420337004BF00233370022ADCF80840A3
:1075500024D0032A18D0012AE6D1227C002AE3D1C4
:10756000DCF80C306360DCF81000A060DCF814106C
:10757000E1609AF800E0DCF81810A161BEF1000F9C
:10758000A2D0626013469FE7002DCDD000232B745C
:10759000ED69002DFBD1C8F80050C3E755B1AC42EE
:1075A00000F0BC802A4601E0944239D01146D269ED
:1075B000002AF9D1002222749842B7D1BBF1000F02
:1075C00001D1A94541D0002D44D04A4A4D4B146801
:1075D000D3F804654C4FD5F800803A78351B25F078
:1075E0007F450335002A00F0B580464AA8452CBFE8
:1075F0004444641924F07F44C2F84045D2F804356D
:107600009B1BA41B23F07F4324F07F440333A3423E
:1076100000F2B98000238AF8003005B0BDE8F08F91
:107620008C427DD0E0692268C861002858D0AC4601
:10763000036813440360AC4552D00022337870785D
:10764000227465464FF0010BB6E7009B002BE1D09A
:10765000002DBAD12B4E2D4A284C4FF400314FF457
:1076600080330127C2F880103C43C6F848334FF4FA
:107670003C60C6F808337760A0471E4BB7604FF4F4
:107680003C601D60A047204B1D7000238AF800302D
:1076900005B0BDE8F08FD31A23F07F4383420BD2AD
:1076A000C31A23601CE77244A2EB0C020A60236039
:1076B000E161C4612C4632E700230122C4E90033B2
:1076C000A360E36122743DB12A68C8F80040D31A70
:1076D0002B60E561254623E7C8F8004025461FE7F3
:1076E000002233787078227466E700BF4C2A0020AD
:1076F0004D2A0020502A0020442A0020D0B7020042
:107700003429002000100140412A002000E100E05F
:10771000542A0020402A0020FEFF7F0029462A46E6
:10772000D5F81CC0C8F800C0BCF1000F42D0D06929
:107730001268C86100287FF47BAF7CE7DFF8B48073
:107740000027D8F800900097AEE6A946C8F8005088
:107750000090A9E62349244A4FF48030C3F844033B
:107760004FF00109C3F804034FF40030C1F8800161
:1077700042F001020860C3F800904FF43C6090476B
:1077800087F8009031E7184BD2F80415C2F840157D
:1077900043F001034FF43C609847124B4FF4003222
:1077A000C3F8002100238AF8003005B0BDE8F08F4F
:1077B000B14675E6CDE902210C4A0D4801239360DC
:1077C000C0F800C08AF800304FF43C60019B984735
:1077D000DDE90221D8F800C0A9E70123B146374608
:1077E000009361E600E100E0D0B702000010014024
:1077F000502A0020542A00202DE9F8431F4D204E26
:10780000204FDFF898804FF480334FF400324FF070
:1078100001090024C6F8802047EA0907C5F8483363
:107820004FF43C60C5F80833C5F80490B847C5F874
:1078300008904FF43C60C8F80040B847124A134B18
:1078400013491C601470134B134A0C700B211470F5
:107850001C8099704FF48012E023C6F8802186F8CE
:1078600014333260C5F8084586F81133D5F804356D
:10787000C8F800302046BDE8F88300BF0010014082
:1078800000E100E0D0B70200412A0020542A002085
:107890004C2A0020342900204D2A0020502A0020A4
:1078A000074B9B783BB142B138B10368187C10B9E3
:1078B00059745A617047082070470720704700BF0D
:1078C000342900202DE9F043264EB37883B0002BF5
:1078D0003AD00446002837D004290D4638D94369E8
:1078E00093B3437C0027012B0DF107000CBF8846A2
:1078F000B84691468DF8077000F076F87378B07846
:107900003278591CC9B2884208BF39468A4223D00E
:1079100003EB430306EBC3030120134A18719C6079
:10792000D2F804259DF807007170C3E90325C3E967
:10793000058900F07FF80D4B4FF480123846C3F8EC
:10794000002103B0BDE8F083082003B0BDE8F08358
:10795000072003B0BDE8F0839DF8070000F06AF847
:107960000420EEE7342900200010014000E100E08F
:1079700070B51B4EB37882B04BB3044638B343693D
:107980002BB3002505740DF107008DF8075000F0AA
:107990002BF87378B07831785A1CD2B2904208BF75
:1079A0002A46914216D003EB430306EBC3030221A0
:1079B0009DF807009C601971727000F03BF8094B4C
:1079C0004FF480122846C3F8002102B070BD082091
:1079D00002B070BD9DF8070000F02CF80420F4E719
:1079E0003429002000E100E070B4EFF3108472B697
:1079F0000D4B9A68AAB90D490D4E01259D60D1F82D
:107A0000805035401D60C1F88060D1F884505D60C1
:107A10004FF0FF33C1F88430027004B962B670BC15
:107A2000704701230370F8E7982C002000E100E084
:107A3000FC06FFBD094B9A687AB170B910B4EFF338
:107A4000108172B6064A1C6814605C6854609860C5
:107A500001B962B65DF8044B70477047982C00205E
:107A600000E100E04A09012301F01F0100EB820060
:107A700003FA01F100F022B801F01F0201234909C5
:107A8000934000EB8100D94300F026B84B0901F088
:107A90001F0150F82300C84000F00100704700BFEC
:107AA00010B4034653E8000F0A4643E8002494F05C
:107AB000000FF7D15DF8044B704700BF10B40346C8
:107AC00053E8002F42EA010043E8000494F0000F5D
:107AD000F6D15DF8044B704710B4034653E8002F0D
:107AE00002EA010043E8000494F0000FF6D15DF8CB
:107AF000044B704710B4034653E8002F02EB01001B
:107B000043E8000494F0000FF6D15DF8044B704791
:107B100010B4034653E8002FA2EB010043E8000431
:107B200094F0000FF6D15DF8044B704710B4034693
:107B3000012253E8001F41EA020043E8000494F0E8
:107B4000000FF6D15DF8044B704700BF10B4034638
:107B5000002253E8000F00EA020143E8001494F009
:107B6000000FF6D15DF8044B704700BFB8B130B4D8
:107B7000D0E90112521A0468D2B2531E2160DBB25E
:107B800042B101680A685C1E551C0D601370E3B2B7
:107B9000FF2BF6D103680020187130BC70470E200F
:107BA000704700BFF0B583B0044600250DF1070013
:107BB0008DF80750FFF718FFD4E900311A688A42A0
:107BC00010D9511E19602168A3680F6812F8015C72
:107BD0000A79A68AE068DB1BDBB29A4206FB050540
:107BE00038BF0B719DF80700FFF724FF284603B04C
:107BF000F0BD00BF30B5054683B000230DF107008E
:107C00000C468DF80730FFF7EFFE2A681368591C01
:107C10001160E968AA8A641AB4FBF2F41C709DF83A
:107C20000700FFF707FF03B030BD00BF826842B115
:107C300010B5044643690168006998470023A360B2
:107C400010BD70470EB400B582B0039921B104ABEA
:107C500001AA019300F092F802B05DF804EB03B0C2
:107C6000704700BF2DE9F84F1646B142DDE90AB270
:107C7000884605461F467BD30B464FF00109B3FBF0
:107C8000F6F39E4209F10109F9D9B94538BFB94661
:107C900012F0010A02D1BBF1000F47D1AA680124FA
:107CA00002E0013F06FB04F4012FFAD8B8FBF4F11F
:107CB0008E42F7D9304F07E0B442B4FBF6F315D348
:107CC000B8FBF3F1AA681C46531CAB602B68785CC8
:107CD0009854D5E901329A4204FB1188ECD3284626
:107CE000FFF7A4FFB4FBF6F3B442E9D2BAF1000FF8
:107CF00013D0BBF1000F10D02024D9450BF1FF3B6E
:107D00000BD2AB682A68591CA960D454D5E901325A
:107D10009A4204D2BBF1000FEFD1BDE8F88F28469C
:107D2000FFF784FFBBF1000FE7D1F6E793071AD402
:107D30002024AA68D94502F10101B0D22B68A960BC
:107D40009C54D5E901329A420BF1FF3B03D2BBF1BF
:107D5000000FEFD1A3E72846FFF768FFAA68BBF141
:107D6000000FE7D19BE7002F0CBF30242024E0E771
:107D70004FF0010989E700BFD8B70200002900F0E1
:107D8000AD812DE9F04FDFF8A8940B7885B0064659
:107D900090460C464FF0300A01E0237893B101344D
:107DA00083B1252B15D0B2683168501CB0608B545C
:107DB000D6E901329A42F0D33046FFF737FF2378F5
:107DC000002BECD1337B002B40F09A8005B0BDE84E
:107DD000F08F0027214614F8012B2D2A69D0302A74
:107DE0006AD02B2A5ED02A2A69D0A2F13003092B4F
:107DF0004FF000050BD805EB850502EB450511F8A2
:107E0000012FA2F13003092BA5F13005F3D92E2A59
:107E10000C465FD0002301E014F8012F02F0FB01B3
:107E20006829F9D0252A00F05681583AD1B2202984
:107E300036D8202A34D8DFE812F077003300330038
:107E4000330033003300330033003300330033009A
:107E500021008500330033003300330085003300F8
:107E600033003300330033003300CE0033003300DF
:107E70000B0133006900330033007700D8F800208D
:107E8000131DC8F80030B36831681278581CB06010
:107E9000CA54D6E901329A4202D33046FFF7C6FEF1
:107EA00001347AE7214614F8012B2D2A47F0040704
:107EB00095D147F001078DE747F002078AE7D8F828
:107EC00000301A1DC8F800204A781D682E2A01F1DA
:107ED00001049FD16278A2F13003092B04F101045F
:107EE0004FF000039AD803EB830302EB430314F82B
:107EF000012FA2F130010929A3F13003F3D98DE755
:107F0000304605B0BDE8F04FFFF790BED8F800202E
:107F1000111DC8F8001011683046CDE900570A223B
:107F2000FFF7A0FE013438E7D8F80020111DC8F88B
:107F3000001011683046CDE900571022FFF792FE7D
:107F400001342AE7D8F80020111DC8F80010D2F833
:107F500000B08BEAEB72A2EBEB72092A40F363816B
:107F6000DFF8D0C2012011466329ACFB02E200F128
:107F700001004FEAD202F6DC9842024638BF1A46A8
:107F80000292002D40F0AB80B80700F1118100256E
:107F9000BBF1000FC0F2FE807A070ED5B1684A1C13
:107FA000B26032682B205054D6E90121914204D3AB
:107FB00030460393FFF73AFE039B07F00302022AC1
:107FC00000F00981CDE9005759460A223046FFF7F3
:107FD00049FE0134E1E6D8F80020131DC8F800304E
:107FE000B368316817685A1CB26001F803A0D6E97B
:107FF0000123934280F00E813268581C7821B060D2
:10800000D154D6E90123934280F0FF800F2F03D98A
:108010003A4612090F2AFCD84FF0805506E00F2D82
:108020004FEA15137FF63CAF1D46B3683268B7FBC5
:10803000F5F1581CB06019F80100D054D6E90132AE
:108040009A4205FB1177EAD33046FFF7EFFDE6E7EA
:10805000D8F800301A1DC8F8002017F00107D3F82F
:1080600000B05DD09BF80000002800F0DE80B3680F
:108070005F46CBF10102591CB1603168C854D6E9A2
:1080800001138B4202EB070B1AD217F8010F0028DD
:10809000F1D15D457FF604AF202702E05D453FF456
:1080A000FFAEB2683368501CB0609F54D6E901320D
:1080B0009A4205F1FF35F1D33046FFF7B7FDEDE702
:1080C00030460292FFF7B2FD17F8010F0028E0D00A
:1080D000B368029ACFE7B3683168D7E67047BBF15F
:1080E000000F01DB7A0700D5013DB80766D4F90718
:1080F0003FF54EAF002D3FF44AAF20220299A9422E
:10810000BFF446AFB168481CB06030684254D6E94D
:108110000101814205F1FF3554D2002DEED136E741
:10812000BBF1000F03D0584603F08AFA0746BD4260
:1081300015D9A5B1202102E0BD4210D07DB1B268B1
:108140003368501CB0609954D6E90123934205F17D
:10815000FF35F1D33046FFF769FD2021ECE79BF8AE
:108160000020002A3FF49CAEB3683168581CB06010
:10817000CA54D6E90123934204D21BF8012F002AE6
:10818000F3D18DE63046FFF751FD1BF8012F002A91
:10819000EAD185E6B1684A1CB26032682D2050549D
:1081A000D6E901219142CBF1000BFFF406AFFFE6C7
:1081B000002B36D0F9073FF5EBAEE8E6002B3FF495
:1081C000E7AE94E730460393FFF730FD039B202290
:1081D000002D93D1DBE6002B7FF4F4AEFDB1029AC3
:1081E000AA42BFF4EFAEB1683268481CB06002F832
:1081F00001A0D6E90121914205F1FF35EED33046C9
:108200000393FFF713FD039BE8E73046FFF70EFDEE
:10821000B368FBE63046FFF709FDB368ECE60025DE
:10822000D0E61D46B4E60120A6E6834631E700BF4E
:10823000D8B70200CDCCCCCCFFF798BC2DE9F041EB
:10824000858A0331043D4E198046B6FBF5F6FFF7EB
:10825000A9FCA0B3F6B24FF48073013E0446C5807A
:10826000C0F8008083802BD00346002508E06279A7
:10827000AE4202F1010262713860C0F800801FD086
:1082800040461F46FFF78EFC013503460028EED11D
:108290006779791E17D02246013399421268FBD1C3
:1082A000D2F800805FB12668002501E034463668C8
:1082B000214601354046FFF79DFCAF42F6D8002429
:1082C0002046BDE8F08120682146FFF793FCF6E7E1
:1082D00004300121FFF70EBC2DE9F04101210446D5
:1082E0000430FFF715FC10F0FF0301D0BDE8F0816A
:1082F0006779791E16D02246013399421268FBD164
:10830000D2F80080002FF1D02668002501E0344625
:108310003668214601354046FFF76CFCAF42F6D87F
:10832000BDE8F08120682146BDE8F041FFF762BC5E
:108330002DE9F843C78804339F4204461546884612
:10834000B3FBF7F207FB123002D8013A2468FCD1E4
:108350003E1AAE4228BF2E469DB14FF000090430B0
:10836000AD1B2044324608EB090103F053F9AF423C
:10837000B14424683E464FF0000028BF2E46002D31
:10838000EDD1BDE8F88300BF2DE9F843C788043379
:108390009F4288461546B3FBF7F1044607FB1132AE
:1083A00002D801392468FCD1BE1AAE4228BF2E463D
:1083B0009DB14FF000090432A118AD1B324608EB05
:1083C000090003F027F9AF42B14424683E464FF05C
:1083D000000228BF2E46002DEDD1BDE8F88300BF76
:1083E00041DF7047064A074B10B5002414701C602B
:1083F000BFF35F8F0449054800F034F8204610BDF4
:10840000602A0020642A0020F4B70200582A0020C5
:1084100000B583B000230DF107008DF80730FFF79A
:10842000E3FAF1EE103A23F09F03E1EE103ABFF3C6
:108430005F8F0B4B4022C3F884219DF80700FFF7A4
:10844000F9FA02F033FF28B920BF40BF20BF03B0C4
:108450005DF804FBFFF7C4FF03B05DF804FB00BF49
:1084600000E100E001600B6843604A68934204BF8A
:1084700000234360704700BF436843B102689168BE
:108480000B4443605268934204BF0023436070472B
:10849000114910B4A1F5947205E052F833309842B6
:1084A00038BF21460CD28C1AE30F03EBE4035B10B8
:1084B000914202EBC304F0D808485DF8044B7047C2
:1084C00002D904F10802EEE76068044B5DF8044B42
:1084D000002808BF1846704728BD0200ECBB020008
:1084E00030B4B84B1B78062B20D0B74B1B68062B3B
:1084F00000F08180B54AD2F8883043F47003C2F8A6
:108500008830BFF34F8FBFF36F8F4FF01023D3F836
:108510000022002AC0F28681D3F80432002BC0F278
:108520008181AB4BAB4A1A6030BC7047AA4B1B68C9
:108530001D07DAD1A94B1B6803F0F002302A00F0C6
:108540009B8003F0E003402B00F09680A34B1B6858
:1085500003F0F003302B00F0A080A04B1B6803F069
:10856000F002302A77D003F0E003402B73D09B4B0E
:108570001B6803F0F003302B00F01481974B1B684D
:1085800003F0F002302A52D003F0E003402B4ED02B
:10859000924B1B6803F0F003302B00F0F5808F4BFB
:1085A0001B6803F0F003302B00F0D7808B4B1B6867
:1085B00003F0F003502B7ED0884B1B6803F0F002D1
:1085C000302A23D003F0E003402B1FD0834B1B68DD
:1085D00003F0F002302A03D003F0E003402B84D1F3
:1085E0004FF08043D3F80024D20744BF6FF001025C
:1085F000C3F8002479E77A4B1B68062B7FF47AAF27
:10860000784A136843F48063136073E7764B6D4ACE
:108610001B681278754903F04F03062A0B607FF43C
:1086200064AF6D4B1B6819077FF45FAFCEE7654AF7
:1086300011784FF0804300220629C3F80C21C3F8BB
:108640001021C3F838257FF450AF634B1B681B071C
:108650007FF44BAF9CE7664B5A4A1B68127865491A
:10866000C3F34233062A0B607FF43FAF5A4B1B68BB
:1086700019077FF43AAF7AE75F4B524A1B681278CA
:108680005E49C3F30423062A0B607FF42EAF524BDE
:108690001B681C077FF429AF58E74A4B584A1B78E0
:1086A00058491160062B7FF420AF4B4B1B6818070D
:1086B0007FF41BAF51E74FF08052534BD2F80414B4
:1086C000C3F82015D2F80814C3F82415D2F80C14F6
:1086D000C3F82815D2F81014C3F82C15D2F81414C6
:1086E000C3F83015D2F81814C3F83415D2F81C1496
:1086F000C3F84015D2F82014C3F84415D2F8241456
:10870000C3F84815D2F82814C3F84C15D2F82C1425
:10871000C3F85015D2F83014C3F85415D2F83414F5
:10872000C3F86015D2F83814C3F86415D2F83C14B5
:10873000C3F86815D2F840142248C3F86C15D2F873
:1087400044140278C3F87015062A7FF4CEAE224B8B
:108750001B6818077FF4C9AE2EE71A4B2B4C1B7809
:108760002B492C482C4A0525256001250D60002445
:108770003F21062B046011607FF4B7AE164B1B68D7
:108780001C077FF4B2AE11E70E4B244A1B7803217D
:10879000062B11607FF4A9AE0F4B1B681D077FF4F9
:1087A000A4AEFCE61E4A0749D368097823F080731B
:1087B0000629D3607FF499AE074B1B681A077FF434
:1087C00094AEDBE6E00F00F03001001000ED00E0B9
:1087D000D82200200090D003E40F00F0E80F00F052
:1087E000340100103C17004058020010E40E004015
:1087F000440200103C0500402403001040350140B5
:1088000074C007400DF0ADBA00C0004010560040E3
:10881000885600401856004014560040A0050040FD
:10882000F0ED00E0184A0123C2F80435D2F8003414
:10883000002BFBD04FF010231521134AC3F8001270
:10884000D2F80034002BFBD04FF0102315210E4A34
:10885000C3F80412D2F80034002BFBD000230A49DD
:10886000C2F80435D1F80034002BFBD0BFF34F8F92
:108870000649074BCA6802F4E0621343CB60BFF3BA
:108880004F8F00BFFDE700BF00E0014000ED00E0BA
:108890000400FA05044B195C4FF0A04201238B4001
:1088A000C2F80C35704700BF28BD0200044B195CAC
:1088B0004FF0A04201238B40C2F80835704700BF3B
:1088C00028BD0200C20730B41AD54FF0A0430322DE
:1088D000C3F844274FF40035C3F848274FF48024E9
:1088E000C3F84C274FF40021C3F850274FF48012EF
:1088F000C3F80855C3F80845C3F80815C3F8082598
:1089000083070AD54FF0A0430C22C3F83427C3F8DD
:108910003827C3F83C27C3F8402730BC704700BF56
:1089200010B568B90E4CA368012262703BB1D3E95F
:1089300000230020A2609847A368002BF7D110BD48
:108940000128FCD1064C2369A070002BF7D0D3E995
:1089500000230120226198472369002BF7D110BD25
:10896000682A002070B910B5074CA3680122627014
:108970003BB1D3E900230020A2609847A368002BF5
:10898000F7D110BD704700BF682A002030B501281C
:1089900083B004D003281DD0B0B103B030BD224C49
:1089A00000230DF107008DF80730FFF71DF823783D
:1089B0004BB3E3689DF8070001330122E360A27026
:1089C000FFF738F803B030BD184B0122C3F8802000
:1089D00003B030BD144C00F0ADF800230DF10700DA
:1089E0008DF80730FFF700F8E368013BE360E568C6
:1089F0002DB19DF80700FFF71DF803B030BD00F062
:108A0000ADF8A570F5E70A486360A3602361E360F1
:108A100000F084F802F04AFC10B101232370C8E78B
:108A200000F088F8F9E700BF682A002000E100E0C4
:108A30002189020030B585B00478094A094B4568A0
:108A40008DF80040047AC06853F82130039052F842
:108A5000211001958DF808406846984705B030BD53
:108A60007C2A0020802A002030B585B00478456833
:108A70008DF80040D0E90240064A074B039053F8B6
:108A80002130019552F821108DF80840684698472A
:108A900005B030BD7C2A0020802A0020F0B51A4B9A
:108AA00090F800C0194C1A4D91F81DE044F82C20A4
:108AB0000746086945F82C0003F80CE00C461646FA
:108AC0000FCC89B06D460FC594E80F0085E80F0004
:108AD000CDF810C0BEF1000F0AD0002E0D4A694635
:108AE00007F1040008BF324601F018F809B0F0BDE4
:108AF000002E094A694607F10C0008BF324600F013
:108B0000D3FD09B0F0BD00BFA42C0020802A0020B6
:108B10007C2A0020358A0200698A0200044A1379FF
:108B200023B9012110609180184670478520704755
:108B3000842A0020084B1A68D20706D40122E021BB
:108B400083F80013C3F880211A604FF0804301229C
:108B5000C3F81825704700BF00E100E0044B012274
:108B60001A604FF08042D2F81834DB03FBD4704710
:108B70000C00004010B5174B1A6882B062B100219A
:108B8000154A19601B68507900934FF0804101230A
:108B9000009CC1F8083398B1104B1A68BAB1002292
:108BA0001A601B6801934FF0804202210A4B019822
:108BB000C2F808131B68012002B0BDE81040184736
:108BC000116853718847054B1A68002AE7D102B033
:108BD00010BD00BF00010040842A002004010040B5
:108BE00070B5214C94F8585082B0002D38D14FF018
:108BF000FF304FF0FF314FF0FF33C4E90001C4E90B
:108C00000C01C4E90E01C4E91001C4E912010422F7
:108C1000294604F15400C4E90233C4E90433C4E929
:108C20000633C4E90833C4E90A33236502F000FDC2
:108C30000E4B0F4A0F4E1560E02183F806134021BA
:108C4000C3F8801119601368019301994FF0004334
:108C50000122284684F85820C6F8043302B070BDBB
:108C6000082002B070BD00BF902A002000E100E0A3
:108C70007C61004000600040034B93F858000038CE
:108C800018BF0120704700BF902A0020F0B46F4B3E
:108C90001D1895F93040002C61DA8C78A707C4F3D1
:108CA000400C53D41C6A013400F0C8805C6A013463
:108CB00000F0BD800C260A2453F82450013552D010
:108CC000651CB5423FD253F82570013700F0A780EC
:108CD000A51CB54237D253F82570013700F09F80AC
:108CE000E71CB7422FD253F8275001353AD0271D41
:108CF000B74228D253F82750013533D0671DB74209
:108D000021D253F8275001352CD0A71DB7421AD2D3
:108D100053F82750013525D0E71DB74213D253F839
:108D2000275001351ED004F10807B7420BD253F883
:108D30002750013516D00934B44204D2DC6A01341C
:108D400008BF0B240FD00420F0BC70471C6801340E
:108D500067D05C68013460D008260224ACE70820A4
:108D6000F0BC70473C461E1865B243F8242086F8D4
:108D70003050BCF1000F02D11C4484F848008A78BE
:108D8000540714D4D6073ED44C784FF0A04600F5D3
:108D9000E072A40046F822402D4EC40800F0070CF3
:108DA000375D012202FA0CF23A4332558A7812F00A
:108DB00002021CD0AB0003F1804303F5C0430978E5
:108DC000D3F8104524F4473424F44074C3F8104514
:108DD00002020904D3F8100501F4403102F4F852FC
:108DE0000A430243C3F810250020F0BC7047083D39
:108DF0002B44087893F8501041EA801183F8501002
:108E00001046F0BC7047820002F1A042D2F8004741
:108E100024F00204C2F80047BEE70124A3E72C4671
:108E2000A1E7002485F830401A602546A7E7092607
:108E300085F830605A62344635469DE7082685F845
:108E400030601A623446354696E700BF902A00200B
:108E5000E42A002070B42C4C251883B095F93020FA
:108E6000072A1CDD224492F848309B09032B40D08E
:108E7000012B0CBF4FF400334FF44033800000F15E
:108E8000A040D0F8002722F44032C0F80027D0F8E4
:108E900000271343C0F8003703B070BC7047D3B24B
:108EA000072BF9D8900000F1804000F5C04002F196
:108EB00040039B00D0F810659BB203F1804303F59B
:108EC000C04346F00106C0F81065002018601B681A
:108ED0000193019B0029DFD095F9303054F82330FD
:108EE000002BD9D00949012303FA02F2C1F8042367
:108EF000D2E74FF0A043D3F81035C34003F001038D
:108F000002331B04BAE700BF902A00200060004033
:108F1000164B034493F93030072B0DDD800000F130
:108F2000A040D0F8003723F44033C0F80037D0F821
:108F30000037C0F800377047DAB2072A14D810B4E7
:108F40009A0002F1804202F5C042094CD2F81005A5
:108F5000012120F0010001FA03F3C2F81005C4F862
:108F600008335DF8044B7047704700BF902A00201B
:108F7000006000404FF0A043D3F8103523FA00F012
:108F800000F00100704700BF2DE9F04186B0C04AF3
:108F9000002301931168012900F0C8811E46BD4BD2
:108FA0001A68012A00F0B481BB4B1A68012A00F04C
:108FB000A181BA4B1A68012A00F08E81B84B1A6859
:108FC000012A00F07B81B74B1A68012A00F0528118
:108FD000B54B1A68012A00F03F81B44B1A68012A88
:108FE00008D0B34B1A68012A00F0AC81F6B906B07C
:108FF000BDE8F081AF4AD2F804231206F1D5002271
:109000001A6019680491196E0498012903F160032C
:1090100046F080060AD11A601B6805934FF0A04302
:10902000059AD3F81035019346F00046A24F00246C
:109030000125A30003F180432E4203F5C0434FEA0C
:1090400045050BD0D3F8100557F82420D3F8101598
:10905000C0F30420C1F3014102B190470134082C50
:10906000E7D1002EC3DA00224FF0FF33CDE902230F
:10907000914C012502AE94F95000471C37D0C0F343
:10908000C20C06AB03EB0C0700F0070317F80C2C1F
:1090900005FA03F31A42C1B200F03F0027D02218AC
:1090A000890992F9302054F82280B8F1000F00F0BD
:1090B0009D81032900F09D81820002F1A04217F8F2
:1090C000147CD2F800C71F40CCF3014C0BD0BCF18C
:1090D000020F0CD1032900F0BF810027B8F1000F67
:1090E00006D0C04704E0BCF1030F00F0A3810027C5
:1090F00094F95100411C32D0C0F3C20E06AB03EB11
:109100000E0C00F007031CF80C2C05FA03F31A42AE
:10911000C1B200F03F0022D02218890992F9302014
:1091200054F82280B8F1000F00F07B81032900F091
:109130007B81820002F1A04E1CF814CCDEF80027DF
:109140001CEA030FC2F3014200F03A81022A06D161
:10915000032900F08481B8F1000F00D0C04794F9D2
:109160005200421C32D0C0F3C20E06AB03EB0E0C11
:1091700000F007031CF80C2C05FA03F31A42C1B2E5
:1091800000F03F0022D02218890992F9302054F8CB
:109190002280B8F1000F00F03B81032900F03B81F1
:1091A000820002F1A04E1CF814CCDEF800271CEA65
:1091B000030FC2F3014200F0ED80022A06D1032919
:1091C00000F05081B8F1000F00D0C04794F953006F
:1091D000431C32D0C0F3C20E06AB03EB0E0C00F002
:1091E00007021CF80C3C05FA02F21342C1B200F06F
:1091F0003F0022D02318890993F9303054F8238096
:10920000B8F1000F00F0FB80032900F0FB80830021
:1092100003F1A04E1CF814CCDEF800371CEA020F54
:10922000C3F3014300F09C80022B06D1032900F018
:109230001C81B8F1000F00D0C047002F3FF4D7AE1B
:109240004FF0A043019AD3F810359A423FF4CFAEC5
:10925000029A019303920EE7164AD2F804235106AC
:109260007FF5BBAE00221A601B680493049B46F096
:109270004006B2E60F4AD2F8042390067FF5A8AE66
:1092800000221A601B680493049B46F020069FE6A8
:109290000061004004610040086100400C61004032
:1092A0001061004014610040186100401C610040E2
:1092B0007C61004000600040902A00206C4AD2F897
:1092C0000423D4067FF57FAE00221A601B68049346
:1092D000049B46F0100676E6654AD2F8042315078B
:1092E0007FF56CAE00221A601B680493049B46F065
:1092F000080663E65E4AD2F8042357077FF559AEA5
:1093000000221A601B680493049B46F0040650E692
:10931000574AD2F8042392077FF546AE00221A601E
:109320001B680493049B46F002063DE65049D1F8C1
:10933000046316F001063FF432AE13601368049321
:10934000049B2CE600221A601B6805934FF0A04393
:10935000059AD3F810350193002E3FF484AE63E6EE
:10936000032B7FF46AAF03297FF463AF4FF400321D
:10937000DEF8003723F44033CEF80037DEF800374C
:109380001343CEF80037B8F1000F3FF459AF01375F
:10939000FFB251E7032A7FF419AF03297FF412AF1C
:1093A0004FF40032DEF8003723F44033CEF80037B4
:1093B000DEF8003701371343FFB2CEF8003701E77C
:1093C000032A7FF4CCAE03297FF4C5AE4FF40032FC
:1093D000DEF8003723F44033CEF80037DEF80037EC
:1093E00001371343FFB2CEF80037B4E603297FF408
:1093F0007EAE16F80C201A4306F80C205CE6032912
:109400007FF41BAF16F80E30134306F80E30FEE65D
:1094100003297FF4DBAE16F80E201A4306F80E205F
:10942000BEE603297FF49BAE16F80E201A4306F819
:109430000E207EE603297FF451AE4FF40037D2F8B8
:10944000003723F44033C2F80037D2F800373B43EB
:10945000C2F80037012741E64FF44037EFE74FF4F9
:109460004032B5E74FF440329CE74FF440327FE79B
:1094700000600040014B1B68184700BFEC2A002029
:10948000114B98421DD130B583B000230DF1070078
:109490008DF807300D46FEF7A7FA0C4B1C794CB936
:1094A0009DF807001D6001221A71FEF7C3FA2046DD
:1094B00003B030BD9DF80700FEF7BCFA112003B0E1
:1094C00030BD0020704700BF00200040EC2A002083
:1094D000034B984203D1034B00221A601A71704764
:1094E00000200040EC2A002030B56D4AD2F8043349
:1094F00099058BB068D5D2F82431002B64D00023B5
:10950000C2F82431D2F8243103934FF40171654B32
:109510000398C2F8081393F8291009B90121516082
:109520005F4902228DF81820D1F88024C1F88024E8
:109530009869D968099200240025CDE90710C3E98C
:109540000645D3E9001206A89047554AD2F81C31C7
:10955000C3B1544B186A596988426AD293F82800FB
:1095600000F0FF04002864D1C2F81C41D2F81C119D
:10957000029102999C68186A196A205C013119628B
:10958000C2F81C05464AD2F84431DBB10021454BF4
:10959000C2F84411D2F8440193F8291000900098C1
:1095A00009B1012111609A6962B1586AD968002233
:1095B0009A610122CDE907108DF8182006A8D3E999
:1095C000001290470BB030BD354AD2F804335B0728
:1095D000BBD5D2F80831002BB7D0324B996900299E
:1095E0003CD00021C2F80811D2F808110491049966
:1095F000D868596AD2F8182542545A6A99690132D2
:109600005A625A6A8A42A0D1DA69002A2FD0DD68EC
:109610005C6A18699A6101210022D860DA615A6295
:109620008DF81810CDE90754D3E9001206A8904729
:109630008BE71B4A0020C2F81C01D2F81C210192C2
:10964000019A00299ED09A688DF8180008915861F7
:10965000079206A8D3E90012904793E7C2F80811D1
:10966000D2F8080105900598D2F81825C9E793F8B3
:10967000292012B90A4A01215160094A4FF40171A7
:10968000C2F80813596ADA68089100240120079289
:109690008DF81800D3E900129C6106A8904754E7A2
:1096A00000200040F82A00202DE9F041644F06799F
:1096B0002C2303FB067382B093F82A30002B40F072
:1096C000908005460C4600685E499046FFF7D8FE3C
:1096D000002840F082802368591C0CD001224FF0F2
:1096E000A04102FA03F3C1F80835236803F5E073DB
:1096F000032241F8232063685A1C06D003F5E07367
:109700004FF0A042002142F823102B68A269C3F851
:109710002425217D637D2A680B43C2F86C35D4E98A
:1097200000122B68C3F81425C3F80C15237D012BF8
:1097300063D02C2303FB06F3FA18C2F804802269D5
:10974000FA50B8F1000F35D02A68237F3E4C002133
:10975000C2F81C11D2F81C2100922A68DDF800C062
:10976000C2F84411D2F844112A6801910199C2F853
:1097700004432A6842F3073100294FEA123234DBEE
:1097800001F1604101F561415B01DBB281F8003319
:10979000296841F3C43323F0604323F0030303F14A
:1097A000604303F56143C1F3043101228A40C3F8E9
:1097B00080211A602C23296803FB067604240023E9
:1097C0000122C6E90633C1F8004586F82A2086F84A
:1097D0002930736102B0BDE8F081112002B0BDE80C
:1097E000F081082002B0BDE8F081184902F00F02B4
:1097F0005B011144DBB20B76CAE7A368591C06D0A3
:1098000003F5E0734FF0A042002142F82310E36813
:109810005A1C0DD001224FF0A04102FA03F3C1F807
:109820000835E36803F5E073032241F82320E36879
:109830002A68A168C2F80835C2F8101579E700BF98
:10984000F82A0020E994020080000200FCEC00E00D
:10985000F8B52F4D047902682C2303FB0453002133
:109860005B68C2F8001583B103682A4AC3F808236D
:109870000268294E42F307335B092033C2F30432F6
:10988000012101FA02F246F8232003684FF0FF326B
:10989000D3F80CC5D3F81475D3F80815D3F81065B0
:1098A000C3F81425C3F80C2503689445C3F80825AC
:1098B000C3F8102506D00CF5E07C4FF0A04302223F
:1098C00043F82C207B1C06D007F5E0774FF0A0432F
:1098D000022243F82720721C06D006F5E0764FF0EE
:1098E000A043022243F826204B1C06D001F5E0716C
:1098F0004FF0A043022243F821200068FFF7E8FD63
:109900002C2303FB0454002384F82A306360F8BD41
:10991000F82A00208402020000E100E02DE9F04175
:10992000314E05792C2303FB05630446586984B046
:1099300000284CD11862996083F828005A61226887
:10994000C2F81C01D2F81C11226802910121029F69
:1099500091602268D3F808C0C2F81C01D2F81C112B
:10996000019101991F6A196A1CF807700131196287
:10997000C2F81C755A6812B104B0BDE8F0811A6AC9
:109980005F692168BA421BD2864602E093F828201C
:109990000ABBD1F81C21002AF8D0C1F81CE1D1F88B
:1099A0001C210392039AD3F820801A6A1CF80880BD
:1099B00001321A62C1F81C851A6ABA42E9D32168D9
:1099C000D1F81C31002BFBD00123CB6004E0112027
:1099D00004B0BDE8F0810F202C2303FB05650023B4
:1099E0006B6104B0BDE8F081F82A002030B5494B26
:1099F000D3F8242189B0002A57D00022C3F82421AB
:109A0000D3F82421029202228DF81020029AD3F872
:109A10008014414AC3F880140791D3F83C15D368E9
:109A20008DF81810002400250593C2E90645116839
:109A3000536804A89847374BD3F844214AB1364AB3
:109A40000021C3F84411D3F8444190690194019C6A
:109A5000E0B9304BD3F82021B2B12F4A0021C3F82E
:109A60002011D3F8204150690094009C60B1D3F8D4
:109A70004C0593688DF818008DF81010516105930E
:109A800004A8D2E90013984709B030BDD3F83C359B
:109A9000D0688DF818300123916105908DF8103051
:109AA00004A8D2E900139847D3E7D3F8101100298E
:109AB000C1D0C3F81021D3F81011174803910399AE
:109AC0008469D3F83C15A142B5D1C469ACB1D3F8CF
:109AD0000052846125F02005C3F80052D0E9034309
:109AE000C26101228DF81810C360016843680594B3
:109AF0008DF8102004A898479DE7C268846101236F
:109B00008DF818108DF810300592D0E9001304A8D4
:109B1000984790E700200040282B00202DE9F043D3
:109B200007796D4E07EBC70306EB830385B093F807
:109B30002030002B40F0A18004460D4600686749A4
:109B40009146FFF79DFC002840F093802B68591C3C
:109B50004FEAC7080CD001224FF0A04102FA03F3EC
:109B6000C1F808352B6803F5E073032241F8232080
:109B70006B685A1C06D003F5E0734FF0A042002139
:109B800042F823102368A969C3F82415297D6A7D4A
:109B900023680A43C3F86C25D5E900312268C2F86E
:109BA0000C35C2F814152B7D012B72D008EB07027F
:109BB00006EB8203C3F804902B6946F82230B9F112
:109BC000000F45D021682B7F454D0022C1F81021A0
:109BD000D1F8101100912168DDF800C0C1F82021F2
:109BE000D1F8201101912168DDF804C0C1F82421C9
:109BF000D1F8241102912168DDF808C0C1F8442190
:109C0000D1F84411226803910399C2F804532268E1
:109C100042F3073100294FEA123232DB01F1604191
:109C200001F561415B01DBB281F80033216841F34A
:109C3000C43323F0604323F0030303F1604303F5CF
:109C40006143C1F3043101228A40C3F880211A60C4
:109C50004744226806EB8706002301240821C6E951
:109C6000063386F82040C2F80015736105B0BDE8E0
:109C7000F083112005B0BDE8F083082005B0BDE8F1
:109C8000F083184902F00F025B011144DBB20B763E
:109C9000CCE7AB68591C06D003F5E0734FF0A04247
:109CA000002142F82310EB685A1C0DD001224FF01E
:109CB000A04102FA03F3C1F80835EB6803F5E0733D
:109CC000032241F82320EB682268A968C2F808350E
:109CD000C2F810156AE700BF282B0020ED9902009A
:109CE00010030200FCEC00E0F8B50579304C026886
:109CF00005EBC50304EB830300215B68C2F8001584
:109D0000EE0083B103682B4AC3F8082302682A4F88
:109D100042F307335B092033C2F30432012101FA15
:109D200002F247F8232003684FF0FF32D3F80CE526
:109D3000D3F814C5D3F80815D3F81075C3F80C255B
:109D4000C3F8142503689645C3F80825C3F8102501
:109D500006D00EF5E07E4FF0A043022243F82E20FD
:109D6000BCF1FF3F06D00CF5E07C4FF0A04302228F
:109D700043F82C207A1C06D007F5E0774FF0A0437B
:109D8000022243F827204B1C06D001F5E0714FF06A
:109D9000A043022243F82120354404EB85040068E7
:109DA000FFF796FB002384F820306360F8BD00BF06
:109DB000282B00201003020000E100E0F0B501F0C4
:109DC0006044B4F1005F83B02BD10679234F06EBDA
:109DD000C60407EB8404034660694FEAC60C0028FA
:109DE00036D1A16062611D68C5F82001D5F820E177
:109DF0001D68CDF804E0DDF804E0C5F85801D5F899
:109E000058E11D68CDF800E0DDF800E0C5F8441524
:109E1000C5F848251A6801219160626822B103B033
:109E2000F0BD102003B0F0BD1B6800E098B9D3F876
:109E30002021D3F85801002AF8D0002818BF0F209D
:109E40000CEB060307EB830300225A6103B0F0BD5D
:109E5000112003B0F0BD0F20F2E700BF282B002037
:109E600072DF704773DF704776DF70477ADF7047C5
:109E70007CDF70477FDF70478FDF7047B1DF70474F
:109E8000FDF734BA08B5037803B108BD054B3B2193
:109E90001888FFF7E9FF0028F7D0BDE80840FDF774
:109EA00025BA00BFF62200200D2801D0FDF71EBA0A
:109EB00010B50F4B188800040C4640F003000D4904
:109EC000FCF7CEFC0C4B0D491888224601F03AF9FC
:109ED00030F0080207D043F20202904203D043F26E
:109EE0000142904200D110BDBDE81040FDF7FEB91F
:109EF0007423002058BD0200F6220020A02B002071
:109F000008B502205AB1FEF7C5FC074B074918886F
:109F10000004BDE8084040F00300FCF7A1BCFEF7D8
:109F2000C5FC014B0249F2E77423002074BD020016
:109F300088BD0200FDF7DAB910B50388212B82B085
:109F400004462ED80F2B2AD9103B112B27D8DFE837
:109F500003F04409265E26262626262626262626C1
:109F60002626263A384B39491888000440F0030069
:109F7000FCF776FC0120FEF799FC354B4FF6FF729B
:109F80001A80FDF799F900285BD1324B012118782E
:109F9000FFF768FF002851D10020FEF77BFC02B0DC
:109FA00010BD522B3DD0562B09D1A0881321FFF7AD
:109FB0005BFF0028F3D0FDF799F902B010BD3B2BF1
:109FC000F3D002B010BD00238088ADF8043001A9A1
:109FD000FFF752FF0028E2D0EDE71B4B1E4918881F
:109FE000000440F00300FCF73BFC0120FEF752FCAC
:109FF0000020FEF75BFC164BA1881848198000F082
:10A0000041FFC0B9FDF742F90028C8D0D3E7104A94
:10A010000023108885211A46FFF72CFF0028BED0A8
:10A02000C9E70B4A0023108819461A46FFF726FF96
:10A030000028B4D0BFE7FDF759F9E3E7FDF756F97B
:10A04000AAE7FDF753F9A0E774230020A8BD02009A
:10A05000F6220020F42200209CBD0200B82B002034
:10A0600000B54FF40041A7B00020FCF76BFA0028C0
:10A0700040F0E080FCF758FA0120FEF723FCFDF7E2
:10A08000BBFB002840F00681844840F26662012153
:10A09000FDF7A4F8002840F0FA80FEF7A3F90028A5
:10A0A00040F0F28001F070F8002840F0EA800023D0
:10A0B00017A90120179301F049F9002840F0DE802C
:10A0C00017A801F0F9F9002840F0D5801123744851
:10A0D0008DF8203001F0B4FA714982B208A8FFF778
:10A0E000C7FE002840F0C4800822002117A801F014
:10A0F0009FFA6C4B179317A84FF0C8731893FFF78C
:10A10000B5FE002840F0B1806748002100F0B2FDA4
:10A11000002840F0A780654B65481793002217A9D7
:10A12000089200F09DFE002840F09980614B624843
:10A13000089308A900F04CFF002840F08D805E4B8A
:10A140005E4C9B7C8DF806303C2241F2235300216B
:10A1500008A8ADF8043001F06BFA022040F2016368
:10A160003C2200218DF8200017A8ADF8223001F024
:10A170005FFA2246012501AB52F8041BADF86C5082
:10A1800008A81C9300F028F9002862D1A1684C4A65
:10A1900017A800F021F9002858D11822002102A8A0
:10A1A00001F046FA012000234FF4807540248DF819
:10A1B000080042494348ADF8143002AA0393ADF8B1
:10A1C0001C500494FFF74CFE00283CD11C220021B7
:10A1D00017A801F02DFA00233B4A1793ADF86A3017
:10A1E0008DF86C30394B4FF420254FF42034032187
:10A1F00017A8CDE91854CDE91C238DF8681000F09C
:10A2000019FCE8B9324B33491888000440F00300C8
:10A21000FCF726FB2B4B01211878FFF723FE60B9D2
:10A220000020FEF737FBFCF7F1F90028FBD1FEF721
:10A23000EFF8F8E7FDF75AF81CE7FDF757F8EFE7F6
:10A24000FDF754F8DEE7FDF751F8BFE7FDF74EF8EC
:10A25000A3E7FDF74BF899E7FDF748F86FE7FDF73F
:10A2600045F863E7FDF742F855E7FDF73FF84BE7A0
:10A27000FDF73CF838E7FDF739F827E7FDF736F842
:10A280001EE7FDF733F812E7FDF730F80AE7FDF7B0
:10A290002DF802E7FDF72AF8F6E600BFDC220020E1
:10A2A000B8BD02005000A0008C2B0020819E02004F
:10A2B000B82B0020019F0200A02B0020E4220020E8
:10A2C000F0220020F4220020859E0200359F02002B
:10A2D00074230020C8BD02006DDF704779DF70472E
:10A2E0007DDF704764DF70472DE9F04F87B0074688
:10A2F000119D00882C880394BDF84840DDF840A0EB
:10A30000CDE90142002858D04FF0000988461E468A
:10A31000CB4604E03A880BF1010B93452CDAD8F8D0
:10A32000002052F82B00059000220DF1130105A822
:10A33000FFF7D8FF044658BB9DF81320B242E9D17D
:10A34000B9F1000F28D02A88019B9119994239DC74
:10A3500052440DF1130105A84FF00109FFF7C2FFA8
:10A36000002834D129889DF813200A442A803A888D
:10A370000BF1010B9345D2DBB9F1000F1DD02B88F7
:10A38000039A013B9B1A9BB2FF2B1BD80AF80230A1
:10A39000204607B0BDE8F08F2A88019B511C32444B
:10A3A00002329A4289B20DDC029B29800AF8013000
:10A3B0002A88013292B22A80CAE70024204607B0D8
:10A3C000BDE8F08F0C24204607B0BDE8F08F0446AE
:10A3D000204607B0BDE8F08F2DE9F047002317882D
:10A3E000138090F82D3088B0144605460E46002B99
:10A3F00040F0FB80AA78002A40F0F080E978A1B113
:10A40000DA1CBA4200F2ED800222F25423880133B2
:10A410009BB201222380F254238813449BB22380F1
:10A42000F154238813449BB223806A68AAB1D91CD3
:10A43000B94200F2D680022192F90020F15423881B
:10A4400001339BB20A212380F154238801339BB24C
:10A450002380F2542388013323802B89002B40F082
:10A46000EE802B8A002B40F026812B8B002B40F0B6
:10A4700041812B6A002B47D0B4F800E00EF10602B0
:10A48000BA4200F2AE801A88052A40F292816FF437
:10A49000486802EB080189B24FF27D30814240F2F8
:10A4A00088815988052940F284816FF4486C8C4476
:10A4B0001FFA8CFC844540F27C814FF6FF7082428B
:10A4C00004D0814202D08A4200F27381052206F84C
:10A4D0000E202288013292B212212280B1542288A9
:10A4E000013292B222801988B1543244090A517063
:10A4F0002288023292B222805B88B35432441B0A13
:10A5000053702388023323806B6A002B2FD09988E5
:10A51000B4F800C0881C0CF102020244BA4260D8B0
:10A52000FE285ED8033106F80C102288013292B260
:10A53000FF212280B1542288013292B222801988F0
:10A54000B1543244090A51702088023080B2208010
:10A550009A8862B199680593002900F02A813044F5
:10A5600001F058F8059B9A8823881344238095F8B6
:10A570002C30002B40F0DB80287898B32B88012BFF
:10A5800000F0178123889A1CBA422AD8012804D1E6
:10A590006978023119448F4223D3023FFF1ABFB2B8
:10A5A000B01806A9ADF81870FFF79AFED0B92B784D
:10A5B000022B00F00281012B00F007810822FE2F00
:10A5C0000FD82388791CF154238801339BB2238050
:10A5D000F254238801331F44278003E00433BB4235
:10A5E0004CD90C2008B0BDE8F087082FF9D906A88F
:10A5F000FFF772FE0028F5D123880822F254238841
:10A6000001339BB21B222380F2542088013080B298
:10A610002080062230440DF1190100F0FBFF238851
:10A620009DF8182006339BB212F0FE0218BF0122DB
:10A630002380F254238801339BB22380DAE605F1AC
:10A640000808022305F10C01CDE9014700964046B8
:10A650001A460591FFF748FE0028C3D1CDE901470E
:10A6600005990096404610230622FFF73DFE00287C
:10A67000B8D12B8A002B3FF4F8AE1CE006A8FFF7F8
:10A680002DFE0028AED12388BDF818200321F154F7
:10A69000238801339BB219212380F154238801338D
:10A6A0009BB2F1182380F254130A4B7023880233B3
:10A6B0009BB22380A2E605F1100805F11401CDE953
:10A6C000014700964046022303220591FFF70CFE46
:10A6D000002887D1CDE9014705990096404610230F
:10A6E0000722FFF701FE00287FF47CAF2B8B002BA5
:10A6F0003FF4BFAE05F1180805F11C01CDE9014793
:10A7000000964046022314220591FFF7EDFD002834
:10A710007FF468AFCDE901470599009640461023C4
:10A720001522FFF7E1FD00283FF4A3AE5AE7A96A1E
:10A7300000293ED04FF000094B464FF0160A2BE09F
:10A740002388F054238801339BB2238006F803A0AA
:10A75000238801339BB2238031F82220F254334402
:10A76000120A5A702088023080B22080B8F8042083
:10A7700030444AB1D8F80810D9B100F04BFFB8F80E
:10A78000042023881344238095F82C205FFA89F352
:10A790009A427FF6F1AEA96A03EB430201EB82080D
:10A7A00009F10109B8F80430D81C0233FE2BC7D9CF
:10A7B00017E7072008B0BDE8F087BDF818309F42C2
:10A7C000FFF4FCAE1F460922F9E66B789F42FFF4C6
:10A7D000F5AE1F460822F2E675DF704776DF704758
:10A7E0007ADF70477BDF704770B51B4D2B8884B2D2
:10A7F000A34282B011D1194E297A327B91420ED3F5
:10A80000337C00222A72DBB9736933B10022ADF8C0
:10A8100006408DF8042001A8984702B070BD184684
:10A8200005F10A01FFF7D8FF28B11128F5D0B36967
:10A83000002BF1D1F1E72B7A01332B7202B070BDFE
:10A840003B212046FFF7CAFF30F00803DCD0B36994
:10A85000002BD9D09847D7E7E02B0020C42B00204D
:10A86000F0B50288122A83B003463ED015D8102ACC
:10A8700073D0112A0FD16C4C828823889A420AD156
:10A880006068FDF775F818B1684B9B6903B198478C
:10A890004FF6FF73238003B0F0BD502AFBD1634D08
:10A8A000C188EA899142F6D1028A022AF3D15E4C2C
:10A8B000828826889642EED1123000F089F900286D
:10A8C00000F09C80637A002B40F09F80D5E9011353
:10A8D000277A60683246002F18BF1946FCF7F2FF4E
:10A8E0000028D8D0AB693BBBD5E74F4C8288218884
:10A8F0009142D0D14089658985421FD8A58985427A
:10A900001CD3E0899D8940F2F313984294BF031A47
:10A91000C31AAB4212D800F2F310A8420ED3434B35
:10A920005B694FF480722281002BB4D00122ADF814
:10A9300006108DF8042001A89847ACE73B4D267A15
:10A940006068D5E90113002E18BF19460023637211
:10A95000FCF7B8FF0028C5D19DE7C67B012E9AD130
:10A96000314C21884FF6FF7291423FD1304D8288A1
:10A97000228003CDC4F80A00C4F80E10598A6089F9
:10A9800000258842257222D8A08988421FD3E189F8
:10A99000988A40F2F313994294BF4B1ACB1A834220
:10A9A00015D801F2F311814211D3204D6672EB8963
:10A9B000002B7FF470AF6B69002B3FF46CAF01216B
:10A9C000ADF806208DF8041001A8984763E7174DED
:10A9D000EB8900216172002B7FF45DAF60686968CC
:10A9E000FCF770FF00283FF456AF7BE70F4B9B69E5
:10A9F000002B3FF450AF042098474CE76068FCF709
:10AA0000B7FF00283FF447AF6CE76B690022227262
:10AA1000002B3FF440AF0122ADF806608DF8042012
:10AA200001A8984737E700BFE02B0020C42B002087
:10AA3000F42B002070B3F8B5054606460FCD164F2F
:10AA40003C460FC4844695E80700144D3D6084E8F9
:10AA50000700BCF1000F17D06046FFF7C1FE90B9A8
:10AA600033681868596803C50D4B0E490E4A1846DD
:10AA70004FF6FF7440F8041F1C800021FCF710FF04
:10AA8000002818BF0320F8BD2846FFF7ABFE0028BA
:10AA9000EAD0F8BD0E207047C42B0020F42B002014
:10AAA000E02B0020FC2B0020E9A702002DE9F04755
:10AAB00003888788112B98B007D01A2B044650D0F2
:10AAC000102B09D018B0BDE8F0873A483946FCF79A
:10AAD000D3FF18B0BDE8F087374A9368DB43009393
:10AAE00051686846FCF7F8FF009B0193019B83B314
:10AAF00000252E46314601A8FCF7C8FF28B118AB47
:10AB000003EB4503013523F8286C0136142EF1D1EF
:10AB10000D950DF1340CBCE80F0002AE0FC6BCE879
:10AB20000F000FC69CE8070086E807008DB10DF105
:10AB30000A08DFF898A008EB450538F8029F1F4E79
:10AB4000304649460436FCF797FFB245F8D1A84590
:10AB5000F3D1132F15D90420FCF7C8FB18B0BDE8BA
:10AB6000F087037A16481F2B4FEA1314394618D979
:10AB7000FCF778FF022C1348394616D0FCF772FF19
:10AB8000A0E70C483946FCF76DFF0C483946FCF746
:10AB900069FFE37B012B95D00B483946FCF762FF38
:10ABA00090E7FCF769FF07483946FCF765FF18B0E6
:10ABB000BDE8F087242C00201C2C0020202C002035
:10ABC0002C2C0020302C0020282C0020942C00203D
:10ABD000007800F00100704790DF7047A5DF7047F4
:10ABE000B5DF7047F0B5002385B0002460F30F0394
:10ABF00060F31F436A46204602A9CDE9023400945F
:10AC0000ADF80440FFF7E8FF054610B9284605B047
:10AC1000F0BD144F3E88FDF73BFC360446F00106BC
:10AC20000346114922463046FBF7BCFFBDF8002021
:10AC3000BDF8023052EA030106D038880B490004FF
:10AC400040F00100FBF7AEFFBDF80420002ADDD084
:10AC500038880749000440F00100FBF7CBFE284686
:10AC600005B0F0BD80230020E0BD02002CBE020034
:10AC70006CBE020008B90E20704730B403464FF096
:10AC800017121B25002041F61B3419611A60C3F806
:10AC900006201D7158819C8130BC70478288002A33
:10ACA00058D130B50388242B83B00C4611D80F2B14
:10ACB0004ED9103B142B4BD8DFE803F05F734A4AA0
:10ACC0004A4A4A4A4A4A4A4A4A4A4A4A4A4A4A43EB
:10ACD0004D003A2B6FD0552B3AD1C388C988A27248
:10ACE000172B38BF17238B4228BF0B4610462381F2
:10ACF000FFF776FF00287DD1E37A4BBB23693BB396
:10AD00002289ADF8042040F677210091204669465B
:10AD10009847A37A9BB1E1880020FFF75FFF0028E6
:10AD200061D011280BD0494B1C88FDF7B1FB2404DE
:10AD300044F00104024646492046FBF75BFE03B09F
:10AD400030BD007A0B7B984228BF1846FFF74AFFB8
:10AD5000A37ADFE770470B69027A4A73002BF7D0BA
:10AD600000204DF67A218DF8050000918DF8042021
:10AD7000694620469847A37ACCE70B790B73C27BD0
:10AD8000012A44D0022A33D14988E18022898A42AB
:10AD900040D3627B9A42DBD21846FFF723FFA37AA7
:10ADA000B8E74FF01711002241F61B33C4F8061024
:10ADB0006281A381C3E74389C98822698B4228BF86
:10ADC0000B46172B38BF172323814AB1E17A39B1DB
:10ADD00040F677210091ADF804306946204690474F
:10ADE00000236381ABE74FF48073638103B030BD10
:10ADF000C988CBE7154B1D88FDF74AFB2D0445F0AC
:10AE00000105024613492846FBF7F4FD74E709885B
:10AE1000E180BBE70020FFF7E1FE18B90123E372F0
:10AE2000237BB6E7112803D10123A372237BB0E76C
:10AE3000064B1D88FDF72CFB2D0445F0010502464D
:10AE400003492846FBF7D6FD237BA2E78023002099
:10AE5000C4BE0200F8BE0200B0DF704766DF704774
:10AE600060B159B10378DE2B0AD00B684360DE2253
:10AE70004FF6FF7302704380002070470E2070472A
:10AE80000820704738B10378DE2B02D141800020C2
:10AE90007047082070470E20704700BF19B330B5C7
:10AEA000054685B018B10B78DE2B0C4601D005B0F5
:10AEB00030BD80884B889842F9D10B7A002B32D173
:10AEC0002B88112B4BD0512B12D0012BEFD12B7A89
:10AED000012BECD1012525720021FFF7BFFF0028CF
:10AEE00051D12072E3E77047A88863888342DED19E
:10AEF000AB79022BDBD1AA7B02F0FD01042935D00E
:10AF0000052AD4D100226946C1E902224A60009292
:10AF1000ADF804208DF80030FFF79EFF0028C6D062
:10AF200063689847C3E70021FFF798FF0346D8B14D
:10AF3000112818D0636898472B88112B0BD0512B00
:10AF4000D2D0012BB3D12B7AAA88012BAFD1608844
:10AF50009042ACD1BEE7AA8863889A42A7D14FF647
:10AF6000FF736380A3E701232372E5E769460022AC
:10AF70004FF4C0754A600092C1E902228DF800309A
:10AF8000ADF80450C8E71128CAD125728FE700BF79
:10AF9000A8DF7047AADF7047AEDF704762DF7047F7
:10AFA0000288502A00D0704710B44A88C48894425E
:10AFB00002D05DF8044B7047028A012AF9D14B692F
:10AFC000002BF6D0827C5DF8044B8088184700BFC8
:10AFD000F0B55B4C05460E4694E80F0095B034681A
:10AFE0006C6104AC84E80F00204605F11201FFF704
:10AFF000D5FF044610B1204615B0F0BDAB7C8DF8EE
:10B000000A302A4641F2235302A90120ADF8083044
:10B01000FFF7BEFF04460028EDD121460322684613
:10B0200000F006FB9DF80230012666F3420321463C
:10B030001C220DA841F211178DF80230ADF80070F6
:10B0400000F0F6FA9DF8343095F812E08DF80EE035
:10B0500023F0120343F0120341F2245C2146032241
:10B0600001A8CDE910440E9413948DF83430ADF856
:10B070000CC0CDF848D000F0DBFA9DF8063023F084
:10B080001F0343F002034FF0110C2146142208A8BD
:10B090008DF80630ADF804C000F0CAFA2B4601A9BD
:10B0A00009910C9433F80A0B0A9603AC08AA0DA96F
:10B0B0000894ADF82C60FFF76DFF044600289AD184
:10B0C00001461C220DA800F0B3FA9DF83430A87C8C
:10B0D0008DF80E0023F00A0341F2255C43F00A03C9
:10B0E0002146032201A8ADF80CC0CDE91044CDE9FA
:10B0F00012440E948DF8343000F09AFA9DF8063020
:10B10000ADF8047023F01F0343F00203214614221C
:10B1100008A88DF8063000F08BFA2B4603A9089199
:10B1200033F8020B0C9408AA0DA901ADCDE909561C
:10B13000ADF82C60FFF72EFF0446204615B0F0BD99
:10B1400038BF020070B50D4688B01346044601268C
:10B1500004A8102200218DF80730ADF80E6000F031
:10B1600067FA6B89ADF810300DF107020DF10E038F
:10B17000204604A9CDE906328DF81260FFF70CFFD6
:10B1800008B070BD10DF704770B53F4D2B7884B0AC
:10B19000002B6CD13D4E3E49012302A83370FDF7D0
:10B1A00061F9039B23B90EE0FDF766F9039B53B1E8
:10B1B000D3E9002100209047044602A8002CF3D1D7
:10B1C000204604B070BD334902A8FDF74BF9039B3C
:10B1D0004BB1D3E900210020904702A8FDF74CF9BC
:10B1E000039B002BF5D12C4A002312688DF8083000
:10B1F00002A80192FCF7F8FB284901A8FFF7C2FF5B
:10B20000B0FA80F304465B099DF808002B70FCF748
:10B2100011FC002CD4D1224B22493470E0220C7056
:10B2200083F8162383F8152393F816233F2A4FEA51
:10B23000521120D904291ED01B4A916801B313680A
:10B2400043F480031360134902A8FDF70BF9039B35
:10B25000002BB5D0D3E900210120904702A8FDF7CB
:10B260000BF9039B002BF5D1204604B070BD0824D8
:10B27000204604B070BD42F20200FCF737F8E2E766
:10B280004FF480021A60DEE7952C0020942C0020F9
:10B2900054BF02006CBF020050BF02000D730200D9
:10B2A00000E100E0962C0020982C0020014B18783B
:10B2B000704700BF952C002000B583B00849684650
:10B2C000FDF7D0F8019B43B1D3E9002090476846D1
:10B2D000FDF7D2F8019B002BF6D103B05DF804FB1B
:10B2E00060BF020060DF704769DF704761DF704751
:10B2F000144B1B782BB330B5134D91B034240DF1A2
:10B30000020103A8ADF80240FFF7F0FF88B9294613
:10B3100001A8FDF7A7F8029B002BF0D0D3E900218C
:10B3200003A8904701A8FDF7A7F8029B002BF5D1D1
:10B33000E5E7052801D111B030BDFBF7D7FF11B00B
:10B3400030BD7047972C0020BCC10200002900F0DE
:10B35000A18070B5514B0B6084B00C4605460C22A1
:10B36000002101A800F064F90126062322688DF867
:10B37000045001A920208DF80660ADF80830FFF7D1
:10B38000B3FF002843D10C22002101A800F050F99E
:10B39000012100238DF805102268ADF8063001A9BF
:10B3A0004020FFF7A1FF002867D10C22002101A84F
:10B3B00000F03EF90A2322688DF8043001A901202B
:10B3C000FFF792FF00284BD10C22002101A800F0CA
:10B3D0002FF94FF4B0632268019301A9A120FFF770
:10B3E00083FF80BB0C22002101A800F021F99DF809
:10B3F000043022686FF3000301A9A0208DF8043007
:10B40000FFF772FF034670B9184604B070BD244BB5
:10B410001D88FDF73DF82D04354302462149284695
:10B42000FBF7E8FAAFE71E4B1C88FDF731F8240460
:10B4300044F0010402461C492046FBF7DBFA0023D6
:10B44000184604B070BD164B1D88FDF721F82D0479
:10B4500045F00105024615492846FBF7CBFAC1E73E
:10B460000F4B1D88FDF714F82D0445F00105024629
:10B470000F492846FBF7BEFAA6E7094B1D88FDF7E2
:10B4800007F82D0445F0010502460A492846FBF756
:10B49000B1FA8AE70E231846704700BFB822002091
:10B4A0008823002078BF0200ACC0020058C0020010
:10B4B0000CC00200C0BF0200F8B504460568FFF7E3
:10B4C00011FF2368AB42064605D83EBB1B4B012249
:10B4D0001A703046F8BD1A4F1A493888000440F0F7
:10B4E0000200FBF7BDF938882368174900042A4693
:10B4F00040F00200FBF756FB4FF080533888D3F83A
:10B500000C31226811499B02000403F1005340F002
:10B5100002009A1AFBF76EFA002ED7D0084B30467D
:10B520001C88FCF7B5FF240444F0010402460849D6
:10B530002046FBF75FFA3046F8BD00BF972C00208D
:10B540008823002000C1020030C1020064C1020053
:10B5500090C102004BDF704710B5114C84B001A8B8
:10B56000FFF7F8FFA8B9214602A8FCF77BFF039B71
:10B57000002BF4D0D3E900210198904702A8FCF7F2
:10B580007BFF039B002BF5D101A8FFF7E3FF002809
:10B59000E9D0052801D0FBF7A9FE04B010BD00BF1B
:10B5A000D4C1020008B5074B044613B10021AFF324
:10B5B0000080054B1868836A03B19847204600F065
:10B5C00047F800BF00000000E4C2020070B50D4D56
:10B5D0000D4C641BA4100026A64209D10B4D0C4C47
:10B5E00000F038F8641BA4100026A64205D170BDF7
:10B5F00055F8043B98470136EEE755F8043B984769
:10B600000136F2E758230020582300205823002059
:10B610005C2300200A44914200F1FF3300D17047BF
:10B6200010B511F8014B03F8014F9142F9D110BD4B
:10B6300002440346934200D1704703F8011BF9E727
:10B64000034613F8012B002AFBD1181A0138704762
:10B65000FEE700BFF8B500BFF8BC08BC9E467047C7
:10B66000F8B500BFF8BC08BC9E467047FFFFFFFF5F
:10B67000FFFFFFFFFFFFFFFFFFFFFFFF00000000D6
:10B68000000000000000D60107010000D96302009D
:10B6900045640200D56302004261636B656E6473AA
:10B6A00020666C757368656400000000617070004E
:10B6B00062616C6C6F632E6C6F675F6D656D706F30
:10B6C0006F6C00001B5B313B33316D0025734C6F99
:10B6D00067732064726F7070656420282564292563
:10B6E000730D0A001B5B306D000000002573000025
:10B6F0003C25733E2025733A200000000D0A00000F
:10B700002025303278000000202020007C0000003E
:10B71000256300001B5B313B33306D001B5B313B0D
:10B7200033326D001B5B313B33336D001B5B313BB0
:10B7300033346D001B5B313B33356D001B5B313B9C
:10B7400033366D001B5B313B33376D006572726FB2
:10B75000720000007761726E696E6700696E666FD5
:10B76000000000006465627567000000E4B6020036
:10B7700014B70200C4B602001CB7020024B70200CE
:10B780002CB7020034B702003CB7020044B70200F5
:10B79000000000004CB7020054B702005CB7020082
:10B7A00064B70200FC280020466174616C20657259
:10B7B000726F720053797374656D2072657365746E
:10B7C0000000000000000000000000000000000079
:10B7D0000338FDD870470000303132333435363706
:10B7E00038394142434445467077725F6D676D74E6
:10B7F00000000000F4C20200F4C2020004000000D5
:10B800004E52465F53554343455353004E52465F95
:10B810004552524F525F5356435F48414E444C4548
:10B82000525F4D495353494E470000004E52465F08
:10B830004552524F525F534F465444455649434533
:10B840005F4E4F545F454E41424C4544000000005E
:10B850004E52465F4552524F525F494E5445524EEA
:10B86000414C00004E52465F4552524F525F4E4F80
:10B870005F4D454D000000004E52465F4552524F0D
:10B88000525F4E4F545F464F554E44004E52465FF6
:10B890004552524F525F4E4F545F535550504F5286
:10B8A000544544004E52465F4552524F525F494EF6
:10B8B00056414C49445F504152414D004E52465F03
:10B8C0004552524F525F494E56414C49445F535482
:10B8D000415445004E52465F4552524F525F494EC9
:10B8E00056414C49445F4C454E47544800000000C7
:10B8F0004E52465F4552524F525F494E56414C4957
:10B90000445F464C414753004E52465F4552524FAA
:10B91000525F494E56414C49445F444154410000F6
:10B920004E52465F4552524F525F444154415F531D
:10B93000495A45004E52465F4552524F525F544954
:10B940004D454F55540000004E52465F4552524FF0
:10B95000525F4E554C4C00004E52465F4552524F7E
:10B96000525F464F5242494444454E004E52465F54
:10B970004552524F525F494E56414C49445F4144F3
:10B98000445200004E52465F4552524F525F42555C
:10B99000535900004E52465F4552524F525F434F3B
:10B9A0004E4E5F434F554E54000000004E52465FCE
:10B9B0004552524F525F5245534F555243455300E3
:10B9C0004E52465F4552524F525F4D4F44554C4583
:10B9D0005F4E4F545F494E495449414C495A454482
:10B9E000000000004E52465F4552524F525F4D5587
:10B9F0005445585F494E49545F4641494C454400BF
:10BA00004E52465F4552524F525F4D555445585F16
:10BA10004C4F434B5F4641494C4544004E52465FB4
:10BA20004552524F525F4D555445585F554E4C4FFD
:10BA3000434B5F4641494C45440000004E52465F2F
:10BA40004552524F525F4D555445585F434F4E44F7
:10BA50005F494E49545F4641494C4544000000004F
:10BA60004E52465F4552524F525F4D4F44554C45E2
:10BA70005F414C52454144595F494E495449414CFC
:10BA8000495A4544000000004E52465F4552524F0D
:10BA9000525F53544F524147455F46554C4C00004E
:10BAA0004E52465F4552524F525F4150495F4E4F92
:10BAB000545F494D504C454D454E5445440000009F
:10BAC0004E52465F4552524F525F46454154555281
:10BAD000455F4E4F545F454E41424C454400000087
