:020000021000EC
:1090000000600020B5920100DD920100DF920100B6
:10901000E1920100E3920100E592010000000000EE
:10902000000000000000000000000000E7920100C6
:10903000E992010000000000EB920100ED920100B6
:1090400035B20100EF920100F1B60100EF9201008C
:10905000EF9201000000000031B50100EF92010025
:10906000EF920100EF920100EF920100EF920100F8
:10907000EF920100EF920100EF920100EF920100E8
:10908000EF920100D9A00100EF920100EF920100E0
:1090900075A10100EF920100B9CD0100EF9201002E
:1090A000EF920100EF9201000000000000000000BC
:1090B000EF920100EF9201000000000000000000AC
:1090C00000000000000000000000000000000000A0
:1090D0000000000000000000000000000000000090
:1090E0000000000000000000000000000000000080
:1090F0000000000000000000000000000000000070
:10910000000000000000000000000000000000005F
:10911000000000000000000000000000000000004F
:10912000000000000000000000000000000000003F
:10913000000000000000000000000000000000002F
:10914000000000000000000000000000000000001F
:10915000000000000000000000000000000000000F
:1091600000000000000000000000000000000000FF
:1091700000000000000000000000000000000000EF
:1091800000000000000000000000000000000000DF
:1091900000000000000000000000000000000000CF
:1091A00000000000000000000000000000000000BF
:1091B00000000000000000000000000000000000AF
:1091C000000000000000000000000000000000009F
:1091D000000000000000000000000000000000008F
:1091E000000000000000000000000000000000007F
:1091F000000000000000000000000000000000006F
:1092000010B5054C237833B9044B13B10448AFF3C0
:1092100000800123237010BDF81C00200000000016
:1092200044DC010008B5034B1BB103490348AFF30D
:10923000008008BD00000000FC1C002044DC010090
:10924000154B002B08BF134B9D46A3F5803A002118
:109250008B460F461348144A121A03F035FF0F4B82
:10926000002B00D098470E4B002B00D098470020D1
:10927000002104000D000D48002802D00C48AFF377
:10928000008003F0EFFE2000290002F009FD03F04A
:10929000D5FE00BF000008000060002000000000B4
:1092A00000000000F81C00208028002000000000C2
:1092B000000000000649074A074B9B1A03DD043BE8
:1092C000C858D050FBDC01F05FFDFFF7B9FF00008C
:1092D00018DD0100181C0020F81C0020FEE7FEE746
:1092E000FEE7FEE7FEE7FEE7FEE7FEE7FEE7FEE756
:1092F0007047000007B5044B0093044A402300F078
:1093000032F803B05DF804FB11930100151D002035
:109310002DE9F84388461446B2B10F4B0F4E032592
:10932000002743F00109224608EB0701002002F064
:1093300041FE0744241A48B933782BB14FF47A40E0
:10934000C847013D02D13570BDE8F8830123337071
:10935000002CE8D1F8E700BF14D10100141D002053
:10936000704702F05BBEF0B595B01D461646084644
:109370000C4601F008FC1A9B0D93CDE90865002509
:109380002B46082205A920460A958DF82C500C95ED
:1093900001F035FC079B0293069B03939DF8143064
:1093A0008DF8115003F00302012A1DD1BDF81420DD
:1093B000059DC3F3C203C2F383168DF81030B200CB
:1093C00008230EA9204601F01AFCC5F3952508AB29
:1093D0000093324602AB0EA9284600F0CFFB204690
:1093E00001F0D5FB15B0F0BD022AF8D1BDF816503A
:1093F000C3F3C203C5F389158DF810300827082D73
:109400002E4628BF08263B4632460EA9204601F0CC
:10941000F6FBAD1B08AB02AA31460EA8374400F09C
:1094200011FC002DEBD1DAE7014B01221A707047D5
:10943000961D00207047000070B5124D06460FCDF6
:1094400088B06C460FC495E80F00002E84E80F002A
:109450004FF0FF334FF00602CDE90023CDE9023390
:10946000094A0A484FF0EB7308BF00226946069389
:1094700001F082FE08B100F083FD054B1E7008B0BC
:1094800070BD00BF28D1010029940100181C0020E4
:10949000551D002008B5044802F06CFABDE80840EC
:1094A0000020FFF7C9BF00BF1C1C002007B5044BFC
:1094B0000093044A4023FFF756FF03B05DF804FB16
:1094C000C9940100561D002010B5084C084800231F
:1094D000D2B2237002F0B6FA08B100F051FD054B8C
:1094E0001A7812B12378002BFBD010BD961D0020F6
:1094F0001C1C0020551D00200120FFF79DBF00000F
:1095000038B5094CFFF72DFF01250421204600F056
:10951000A3FA6572054CFFF7EFFF0421204600F027
:109520009BFA657238BD00BF241C0020301C00204F
:10953000037813F0030F024603F0040001D008B9CA
:109540007047B0B103F00300012803D0022809D00E
:10955000012070470B6812880233C2F38312134450
:109560000B6070470B685288023303EB92130B6059
:10957000EEE70B6850881288013303EB9013F4E791
:109580002DE9F04F87B000230446861C0DF107003B
:109590000F4615468DF8073000F0E4FF4548016896
:1095A0003960D0E90132134401335B1A824600F27C
:1095B0001C4700F5836900F21448B3421CD3002015
:1095C000002D73D004F00F039B0143F0050363F3F8
:1095D0000F00DAF80020DAF808301340033316449D
:1095E0004AF823009DF80700CAF8006000F0DEFF8B
:1095F000012007B0BDE8F08F0121384601F037F8AF
:10960000484601F04CF8404601F049F8DAF8040009
:10961000DAF808B0029000EA0B0003300AEB800091
:1096200002A9FFF785FF029B50BB0BEA03020AEB7E
:10963000820203F1020CD2680392013303EA0B0B9E
:109640000AEB8B0B02F00302012ADBF80C10CDF8B9
:1096500008C023D0022A16D08346404601F022F8E3
:1096600010B1029BCAF804305946384600F0FFFF9B
:10967000DAE901231344DAF8002001339B1A9CE74E
:109680000BEA0300C9E7BDF80E30C3F389130333B7
:109690004FEA114B0CEB93030293DEE7BDF80C305D
:1096A000C3F383134FEA114B6344F5E7A40544F079
:1096B00006008EE7681E002008B50E4B0E48FF22FC
:1096C0009A600022C3F81824C3E90022C3F81424C6
:1096D00083F8202401F010FA38B9084A084B0949E8
:1096E0009B1ADB0802469A4200D108BD21F82220CD
:1096F0000132F8E7681E0020E0DC010080DC010098
:10970000E0DC0100C41C002030B50A4C71B10A4AEB
:109710000A49121BD20800239A4201D1002030BD11
:1097200031F82350854202D00133F5E7034654F85F
:109730003300F4E780DC0100E0DC0100C61C0020FF
:10974000094B013903EBC000032909D8DFE801F018
:109750000A02040604207047007970474079704778
:10976000002070470220704780DC0100034BD3E9E2
:109770000030C31A58425841704700BF681E00208D
:109780002DE9F04387B0FFF7F1FF0646002840F0CF
:10979000F3807A4DC5F81804BFF34F8F6B68AC683F
:1097A00002932340033305EB830002A9FFF7C0FEB9
:1097B000029B0746002861D104EA0302991C013389
:1097C00005EB8202234005EB8303D268DB68049338
:1097D00002F00303022B0392029162D1BDF80E3016
:1097E0006748C3F38918B8F1500FC14628BF4FF03E
:1097F000500969F38F1309F10801ADF80E3001F03B
:1098000093F90646002800F0A58001F0BCF93B461C
:10981000082203A9304601F0C9F9029924EA01029D
:109820000132B9EB820F4FEA820333D95FFA89F92B
:1098300063B32140DCB2A9EB040903315FFA89F775
:10984000A146504C05EB810108234A46304601F001
:10985000ADF934B109F108033A462146304601F02A
:10986000A5F9029B08F1030803EB98030293D5F8CE
:109870001834002B48D1D5F8104456E02A689A4293
:109880008FD86A60304607B0BDE8F0833D491C467A
:109890001F46D9E70C40E11C08234A4605EB81012D
:1098A000DCE7012B56D1BDF80C303548C3F38311EA
:1098B000062928BF062161F3891302318900ADF81A
:1098C0000C3001F031F90646002843D001F05BF975
:1098D0003B46082203A9304601F068F9BDF80C2088
:1098E000C2F38312BB00974203F10803BFD202996F
:1098F0004A1C21400331029205EB810104223046CB
:1099000001F054F90137E9E7304601F040F9FFF77B
:109910002DFF80F00106F6B2B4E7637A23B1236825
:1099200031461B68204698476468002CF5D13046C4
:1099300001F02DF90DF107008DF8074000F012FE3F
:10994000D5F818340BB9029B6B609DF8070000F046
:109950002DFEDCE7D5F8104444B90B4B0B491888B1
:10996000000440F0020000F05FF8D0E723682046D2
:109970009B6898476468EFE7002683E7681E00202D
:10998000E0DC0100741E0020D41C002054D1010032
:109990002DE9F74F224D04460F46924601A90122B8
:1099A0001846D5F808909B46FFF7EAFD20B3019EC4
:1099B0004FF00008B21CD84508EB020126D1194827
:1099C000002100F025FE80F31000000440EA14405E
:1099D000E400731C04F0380403EA090306EA0906EC
:1099E00044F0010405EB8303033644EA881444EA97
:1099F0008724D86045F8264095F820341BB1FFF73E
:109A0000BFFE0028FBD103B0BDE8F08F09EA0101D9
:109A100005EB81015AF82830CB6008F10108CAE74C
:109A2000681E00208422002000231A46FFF7B0BFE2
:109A300007B50123019201AAFFF7AAFF03B05DF861
:109A400004FB07B5CDE9002302236A46FFF7A0FF18
:109A500003B05DF804FB000030B5104AD2F81044A2
:109A600003460020214639B91872D2F8104444B98F
:109A7000C2F81034596030BD0D7A854207D049686C
:109A8000F1E761685960D2F810245360F3E70130C0
:109A90000A28E7D14FF0FF30EDE700BF681E002035
:109AA00038B5084A0123D2F8104482F820341D4604
:109AB00004B938BD2368657220465B6898476468BE
:109AC000F6E700BF681E002010B5037A052B0C4690
:109AD0000FD0437A23B1084A0849204600F047FED8
:109AE0000749204600F043FE2046BDE8104000F044
:109AF00033BE002AF8D0F3E77CD1010081D1010008
:109B0000A1D1010073B5C38804460D4633B1144A90
:109B100000921449144A284600F029FE217A0529AA
:109B20001CD0637A4BB1A088FFF70AFE0F4B104997
:109B300053F82020284600F01AFE227A0D4BA08808
:109B400053F822600021FFF7DFFD0B490346324640
:109B5000284602B0BDE8704000F009BE02B070BDFA
:109B60007CD101008CD1010084D1010008D2010018
:109B700081D101002CD20100A4D101002DE9F043D4
:109B800085B01F460C9D002395F80C902B7306465C
:109B90000C46904629463846FFF7B4FFB8F1060F49
:109BA00009D8DFE808F00412181F283340003146B6
:109BB000284600F0DCFD002229463846FFF784FFE6
:109BC00085F80C9005B0BDE8F08322683146284640
:109BD00000F0CDFDEFE7D4E900233146284600F040
:109BE000C6FDE8E7A36800933146D4E90023284680
:109BF00000F0BDFDDFE7E3680193A3680093314601
:109C0000D4E90023284600F0B2FDD4E7236902938B
:109C1000E3680193A36800933146D4E90023284602
:109C200000F0A5FDC7E76369039323690293E36826
:109C30000193A36800933146D4E90023284600F03D
:109C400096FDB8E708292DE9F84F80460E461746DD
:109C50001C4639D8002593F80C901D731946104600
:109C6000FFF750FFDFF884A0DFF884B0AE422DD9B3
:109C700018F805205946204600F079FD0135082DD9
:109C8000F4D11749174DDFF86CB0204600F06FFD96
:109C90004FF0000A56451ED918F80A20124BD15C25
:109CA00011F0970F08BF2E225946204600F05FFDA5
:109CB0000AF1010ABAF1080FECD101222146384617
:109CC000FFF702FF84F80C90BDE8F88F514620465C
:109CD00000F04DFDD2E72946204600F048FDE7E7B9
:109CE000B8D10100B6D101003DDB0100B4D10100C3
:109CF000AED10100BAD101002DE9F04F364E87B048
:109D00004FF00009354B1B785FFA89F5AB4202D85A
:109D100007B0BDE8F08F324BD3F800A01AF8350039
:109D20000124D6E9001EA0F12002C0F1200304FAAC
:109D300002F224FA03F3134304FA00FC059301EA48
:109D40000C030093059B0EEA03030193DDE9002356
:109D500013430AEBC50B3BD0059B21EA0C012EEA0D
:109D60000303C6E9001301F0D9FB03461AF83500D6
:109D70001C4DA0F12001C0F1200204FA01F124FAE7
:109D800002F20A43D5E900C184400A400392A0F1DF
:109D9000200104EA0C04C0F1200203FA01F823FABE
:109DA00002F2029448EA0208DDE9021203FA00F71F
:109DB000424508BFB9420BD1DBF8042042B19BF801
:109DC00001104C1E61426141CD1A694269419047C0
:109DD00009F1010996E700BFC02200208C22002073
:109DE000C8220020B8220020F8B506461E4800F020
:109DF000A9FBC0BB0125A6F12004C6F1200325FA6A
:109E000003F305FA04F41C43184BD3E900C2B54030
:109E10000CEA050002EA040101431F461DD1304649
:109E200001F07CFB124BD3E9001288B12943224395
:109E3000C3E90012D7E9002315431C43C7E90054C6
:109E40000C4B094819680022BDE8F84000F032BB0D
:109E500021EA050122EA0402EAE72CEA050522EAE2
:109E60000404C3E90054F8BD94220020C02200205D
:109E7000B822002090220020042A2DE9F341054653
:109E80000C46164639D901F065FAD8B11C4B1D496C
:109E90001D601D4BDFF884801C701C4B00221E606F
:109EA0000023C1E900231A49C1E90023013CE4B2BF
:109EB00000260327FF2C0CD1164A1748002100F07A
:109EC000E7FA03E001F00CFA0028DFD002B0BDE8A9
:109ED000F08105EBC40315F834009B788DF806601B
:109EE000424601A98DF804708DF8053001F03CFA66
:109EF000013CE4B20028DDD0E8E70720E6E700BF38
:109F0000C8220020B82200208C22002090220020AD
:109F1000C0220020F99C010040D20100E99D01000F
:109F200070B5084D084E00242B789C4201D30020C8
:109F300070BD3368012113F8340001F089FA01344F
:109F4000F2E700BF8C220020C822002070B5094D26
:109F5000094E00242B789C4204D3BDE8704007488A
:109F600000F0F0BA336813F8340001F0B5FA0134A8
:109F7000F0E700BF8C220020C8220020942200209D
:109F80001FB50021039001AA44F20100CDE901119F
:109F900000F004F805B05DF804FB000010B572B6DF
:109FA000FFF77EFDFFF7ECFB0028FBD1104C1149B9
:109FB0002088000440F00100FFF736FD0E4B1B68BF
:109FC000DB0700D500BE20880C49000440F00200E9
:109FD000FFF72AFDBFF34F8F09490A4BCA6802F405
:109FE000E0621343CB60BFF34F8F00BFFDE700BFBC
:109FF000D41C002044D20100F0ED00E050D201005A
:10A0000000ED00E00400FA05094A53789178013325
:10A01000DBB2994208BF0023117899421FBF037039
:10A020005078182303FB002014BF04300020704731
:10A03000CC22002073B5054600240DF107000E4622
:10A040008DF8074000F08EFA0DF10600FFF7DCFFF7
:10A0500090B10670094B9DF8062045605A709DF836
:10A06000070000F0A3FA24B9054B4FF48012C3F89F
:10A070000021204602B070BD0424F0E7CC2200206D
:10A0800000E100E0024B4FF43C6043F0010318474D
:10A090005ED2010038B50C4B0C4C4FF40032C3F8C3
:10A0A000802001254FF48033C4F84833C4F80833C6
:10A0B0006560FFF7E7FF064BA56000241C60FFF713
:10A0C000E1FF044B1C7038BD00E100E000100140CE
:10A0D000E8230020D9230020F8B51F491F4B002595
:10A0E000C1F84051C1F84451C1F84851C1F84C5130
:10A0F000C1F80051C1F804511B684BB3D1F80445B5
:10A1000017490968641A24F07F442F461A68A2424E
:10A1100009D8A41A15441A7CDE691AB1D3E90520BE
:10A120001F749047AEB90F4A0F4B11781B788B42C2
:10A1300005D10133DBB2022B08BF00231370127864
:10A140000A4B43F822500A4B4FF48012C3F8002107
:10A15000F8BD3346DAE700BF00100140EC230020D1
:10A16000E8230020E5230020E4230020DC23002056
:10A1700000E100E02DE9F04FA24AA34913780978E5
:10A18000A24D994285B03CD00133DBB2022B08BF0F
:10A19000002313709E4912789E4B0F6853F82200DB
:10A1A0003B1823F07F4300220B602B6816461446B1
:10A1B000944613B942B12B6006E0196881420ED96A
:10A1C00002B12B60091A196001272B68DFF84CA235
:10A1D00001934FF00008BEB9DFF848B262E0401AC0
:10A1E0000C44D968D3F81CE0C3F800C031B13A1967
:10A1F00022F07F42C3E90121DE611E46734601223F
:10A20000D7E700263746E0E73446F669804A6368B8
:10A210001268DFF814C2A068991A21F07F416145E5
:10A2200000F2A88001442160012222742A680023E0
:10A23000C4E90133E361002A40F0A5802C60CAE73D
:10A240009BF802105A1CD2B291428BF8002004BF36
:10A2500000228BF80020182202FB03B32A68197928
:10A260009C68022977D0032900F08180012919D147
:10A27000207CB8B9D96861601A69A2605A69E26045
:10A280009B69A361644B1B78002B18BF014661607A
:10A29000BCE78C4200F094808946C9690029F8D156
:10A2A000002323749BF800309BF801209A42C7D109
:10A2B0002B68B8F1000F04D1019A9A4201D1002F06
:10A2C00043D0002B79D0D3F800A0544D504BD5F893
:10A2D00004751C68DFF854813E1B98F8003026F0A6
:10A2E0007F4603369BB94FF48033C5F84433C5F835
:10A2F00004334B4B4FF400324FF00109C3F8802177
:10A300001A60C5F80090FFF7BDFE88F80090B245CE
:10A310002CBF5444A41924F07F44C5F84045D5F817
:10A320000435DB1B23F07F43E41B033324F07F441D
:10A33000A3420AD9D5F80435C5F84035FFF7A2FE87
:10A34000374B4FF40032C3F80021334B00221A7010
:10A3500005B0BDE8F08F114691469FE71174D269B0
:10A360000123002AFAD1002B9CD02A609AE700230F
:10A370001946F6E7D31A23F07F43834234BFC31A4A
:10A380000023236050E721681368994213D8591AB3
:10A390001160E26152E7091AD8691A4638B10346DA
:10A3A00018688842F7D3401A18601846134621608F
:10A3B000E061DC610FE71346F2E7FFF76BFEC4E7ED
:10A3C0004C4511D1D3692B6073B9DFF844E001200B
:10A3D000CDE90212CAF80800CEF800300E4B187012
:10A3E000FFF750FEDDE902120B68C969C9F81C10BD
:10A3F00011B1086803440B602B68934218BF4FF0FB
:10A4000001084DE7E4230020E5230020EC23002091
:10A41000E8230020DC230020D82300200010014086
:10A4200000E100E0CC220020FEFF7F00D9230020C5
:10A4300008B5FFF72FFE104B00200B2218809A70F2
:10A440000E4B18600E4B18700E4B18700E4B4FF4DD
:10A450008012E021C3F8802183F814131A6002F1FE
:10A460008042A2F56F22C2F8080583F81113074B4A
:10A47000D2F804251A6008BDCC220020EC2300206D
:10A48000E4230020E523002000E100E0E823002091
:10A49000074B9B784BB132B128B10368187C20B9C7
:10A4A00059745A617047072070470820704700BFF1
:10A4B000CC2200202DE9F743DFF8848098F80230A1
:10A4C00005460E461746ABB3A0B3042930D94369FD
:10A4D00083B3437C0024012B0DF107000CBF894698
:10A4E000A1468DF8074000F03DF80DF10600FFF79A
:10A4F0008BFDD8B1012303700F4B4560D3F80435B1
:10A50000C0E90497C0E902369DF8063088F80130AA
:10A510009DF8070000F04AF824B9084B4FF4801268
:10A52000C3F80021204603B0BDE8F0830424EFE720
:10A530000724F7E70824F5E70010014000E100E0F8
:10A54000CC220020064A92783AB130B1426922B159
:10A55000002202740221FFF76DBD0820704700BF82
:10A56000CC22002070B5EFF3108672B60C4A9468C6
:10A5700001239CB993600B4B0B4DD3F880102940FD
:10A580001160C3F88050D3F8841051604FF0FF324F
:10A59000C3F88420047006B962B670BD0370FAE790
:10A5A000FC27002000E100E0FC06FFBD10B5084BD1
:10A5B0009A685AB150B9EFF3108172B6054A1C6817
:10A5C00014605C685460986001B962B610BD00BF49
:10A5D000FC27002000E100E001F01F024B090121EF
:10A5E000914000EB830000F01EB801F01F03012230
:10A5F0009A404B0900EB8300D14300F02CB84B0983
:10A6000001F01F0150F82300C84000F0010070471E
:10A6100010B5034653E8000F0A4643E8002494F0BF
:10A62000000FF7D110BD10B5034653E8002F42EAE2
:10A63000010043E8000494F0000FF6D110BD10B5FE
:10A64000034653E8000F00EA010243E8002494F0B7
:10A65000000FF6D110BD10B5034653E8002F02EAF3
:10A66000010043E8000494F0000FF6D110BD10B5CE
:10A67000034653E8002F02EB010043E8000494F086
:10A68000000FF6D110BD10B5034653E8002FA2EB22
:10A69000010043E8000494F0000FF6D110BD012141
:10A6A000FFF7C1BF0021FFF7CABF10B590B1D0E9D5
:10A6B000012301689B1ADBB20A60013BDBB2FF2B6E
:10A6C000026802D10020107110BD11684C1C14608A
:10A6D0000B70F2E70E20F7E737B5044600250DF1C1
:10A6E00007008DF80750FFF73DFF22686168136887
:10A6F0008B4210D9591E116013F8015CA28AE368DD
:10A7000002FB05352268A36811685B1A1179DBB278
:10A71000994238BF13719DF80700FFF747FF28469D
:10A7200003B030BD37B5054600230DF107000C46D8
:10A730008DF80730FFF716FF2A681368591C11605F
:10A74000E968641AA98AB4FBF1F41C709DF807004B
:10A75000FFF72CFF03B030BD10B5826804462AB164
:10A7600043690168006998470023A36010BD0EB4D7
:10A7700003B5039921B104AB01AA019300F06EF86F
:10A7800002B05DF804EB03B07047826830B404682F
:10A79000551C8560A154D0E901329A4202D330BCE5
:10A7A000FFF7DABF30BC70472DE9F84F9846DDE976
:10A7B0000A43154682460F460A464FF00109AA424F
:10A7C0000FD2C14538BFC14613F0010B01D16CB99E
:10A7D00000240126B8F1010F1BD908F1FF386E43A0
:10A7E000F8E709F10109B2FBF5F2E8E79B070ED59E
:10A7F000B8F1000F0CBF30262026A145E9D2013C5C
:10A8000031465046FFF7C1FF002CF6D1E0E7202685
:10A81000F3E7B7FBF6F39D42E1D9DFF83C80B7FBE5
:10A82000F6F3504618F8031006FB1377FFF7ADFF59
:10A830003346AB42B6FBF5F6F1D2BBF1000F02D0C6
:10A840000CB1A14501D3BDE8F88F20215046013C51
:10A85000FFF79BFFF4E700BF64D201002DE9F74F3B
:10A86000054617468846002900F0428118F8011B6A
:10A8700049B92B7B002B00F03B81284603B0BDE893
:10A88000F04FFFF769BF252940F0B780002698F800
:10A8900000302D2B424608F1010823D0302B24D064
:10A8A0002B2B25D000242A2B02F1010123D13B6858
:10A8B0001A1D3A601B680A461C4413782E2B26D1B9
:10A8C00001324FF0000A104610F8011BA1F1300CC4
:10A8D000BCF1090F1DD80A2303FB0A13A3F1300AA8
:10A8E0000246F0E746F00106D1E746F00206CEE761
:10A8F00046F00406CBE711F8013CA3F1300009282B
:10A90000DBD80A2202FB0434303C0A46CBE74FF086
:10A91000000A12F8011B01F0FB0068289046F8D0ED
:10A92000782909D86F290CD8632962D022D8252923
:10A9300063D0582900F0888098F80030002B95D11A
:10A9400097E770390829F7D801A353F821F000BF21
:10A95000CBAA010039A9010039A9010059AA0100B7
:10A9600039A9010037AA010039A9010039A901005C
:10A9700049AA0100642901D06929DDD13A68111D75
:10A980003960D2F8009089EAE972A2EBE9724FF0DF
:10A99000010B092A35DCD34538BFD3462CB1B9F1B8
:10A9A000000F01DB720700D5013CB30702D5BAF1F5
:10A9B000000F03D0F00701D44CBB0024B9F1000F05
:10A9C0002DDAC9F100092D212846FFF7DEFE06F039
:10A9D0000302022A04D1BAF1000F01D11CBB0024EA
:10A9E000CDE9004653460A2249462846FFF7DCFED9
:10A9F000A2E73B681A1D3A6019782846FFF7C5FEA2
:10AA00009AE70A230BF1010BB2FBF3F2C1E7A3456E
:10AA1000D4D220212846013CFFF7B7FECCE77107CE
:10AA2000D5D52B21D0E7A345DAD230212846013CE9
:10AA3000FFF7ABFED2E73968CDE900460A1D3A6060
:10AA400053460A220968D0E739680A1D3A60CDE901
:10AA5000004653461022F5E73B681A1D3A6016F08F
:10AA60000106D3F8009028D1B9F1000F03D0484671
:10AA700002F03AFB0646B44200D904BB09F1FF39A3
:10AA800019F8011F00293FF457AF2846FFF77DFE54
:10AA9000F6E728460136FFF778FE19F80610002978
:10AAA000F7D1A642BFF448AF002C3FF445AF2021B8
:10AAB0002846013CFFF769FEF3E70026EDE7202179
:10AAC0002846013CFFF761FED5E73B681A1D3A6056
:10AAD000302128461C68FFF758FE78212846FFF7EA
:10AAE00054FE00220823CDE90032214610227CE7E3
:10AAF00003B0BDE8F08F00BFFFF7D7BDF8B54679CA
:10AB00000146721E0546002393422D6803D300249C
:10AB1000A64202D8F8BD0133F6E70F682846FFF7D2
:10AB200001FE01343946F3E72DE9F843CD1C868A4E
:10AB30000746FFF7D1FD043E35440446B5FBF6F564
:10AB4000F0B14FF48073EDB28380C680013D0760A1
:10AB500081464FF00008A84512D23846FFF7BCFDE9
:10AB6000064648B163790133637108F10108C9F8F9
:10AB7000000007608146EEE72046FFF7BFFF34463E
:10AB80002046BDE8F88301210430FFF770BD10B501
:10AB9000012104460430FFF776FD10F0FF0F04D1C9
:10ABA0002046BDE81040FFF7A9BF10BD2DE9F843CE
:10ABB000B0F8068004330546B3FBF8F40F4616469A
:10ABC00008FB14333CB9A8EB0309B14528BFB146D3
:10ABD00026B9BDE8F8832D68013CF3E70433E81893
:10ABE000A6EB09064A46391902F060FAB0454C4412
:10ABF0002D68C1464FF0000328BFB146E8E72DE9B4
:10AC0000F843B0F8068004330546B3FBF8F40F466A
:10AC1000164608FB14333CB9A8EB0309B14528BF1D
:10AC2000B14626B9BDE8F8832D68013CF3E704334B
:10AC3000E918A6EB09064A46381902F037FAB0457A
:10AC40004C442D68C1464FF0000328BFB146E8E7E9
:10AC500041DF7047064B10B500241C70054B1C608B
:10AC6000BFF35F8F0449054800F016F8204610BD79
:10AC7000F8230020FC23002080D20100F0230020D4
:10AC800008B502F07FF818B1BDE80840FFF7E0BF53
:10AC900020BF40BF20BF08BD01600B6843604A6809
:10ACA000934204BF002343607047436843B1026886
:10ACB00091680B4443605268934204BF0023436091
:10ACC0007047000010B50D49A1F59472914201D86A
:10ACD00000200FE08C1AE30F03EBE4035B1002EBA0
:10ACE000C30452F83330834205D802D204F108027B
:10ACF000ECE7606810BD2146E8E700BF84D701009B
:10AD000008B5FFF7DFFF024B002808BF184608BD53
:10AD100046D601000C4B1B78062B10D10B4B1B6841
:10AD20001A070CD10A4B186800F0F003302B08D03A
:10AD300000F0E000A0F14003584258417047002065
:10AD400070470120704700BFE00F00F0E40F00F0F3
:10AD5000E80F00F0094B1B78062B0CD1084B1B6841
:10AD60001A0708D1074B186800F0F000A0F1300373
:10AD70005842584170470020704700BFE00F00F074
:10AD8000E40F00F0E80F00F008B5FFF7C3FF28B1AB
:10AD90006F4B704A1B68C3F304231360FFF7DAFF9D
:10ADA00010B16D4B6D4A1A606D4B6E4A1B68C3F350
:10ADB00042331360FFF7CEFF20B16B4AD36823F014
:10ADC0008073D3604FF080430022C3F80C21C3F896
:10ADD0001021C3F83825FFF7BDFF10B1634B0322E4
:10ADE0001A60FFF7B7FF40B1614B05221A600122DC
:10ADF0009A6700229A603F225A604FF080525D4B62
:10AE0000D2F80414C3F82015D2F80814C3F8241596
:10AE1000D2F80C14C3F82815D2F81014C3F82C1566
:10AE2000D2F81414C3F83015D2F81814C3F8341536
:10AE3000D2F81C14C3F84015D2F82014C3F84415F6
:10AE4000D2F82414C3F84815D2F82814C3F84C15C6
:10AE5000D2F82C14C3F85015D2F83014C3F8541596
:10AE6000D2F83414C3F86015D2F83814C3F8641556
:10AE7000D2F83C14C3F86815D2F84014C3F86C1526
:10AE8000D2F84424C3F8702503F54053FB22C3F8DD
:10AE90001825FFF73FFF28B1374B384A1B6803F0EE
:10AEA0004F0313604FF08043D3F80024D20744BF10
:10AEB0006FF00102C3F80024314B1B68062B08D148
:10AEC000304B1B68062B01BF2F4A136843F4806385
:10AED00013604FF01023D3F80022002A03DBD3F8CD
:10AEE0000432002B2FDA294B0122C3F80425D3F8B2
:10AEF0000024002AFBD04FF010221521C2F80012C6
:10AF0000D3F80024002AFBD04FF010231522C3F8F9
:10AF100004221E4B1A46D3F800140029FBD000214E
:10AF2000C3F80415D2F80034002BFBD0BFF34F8FC9
:10AF30001749184BCA6802F4E0621343CB60BFF3B1
:10AF40004F8F00BFFDE7144B144A1A6008BD00BFC5
:10AF5000240300104035014074C007400DF0ADBA25
:10AF6000440200103C050040F0ED00E0A005004068
:10AF70001056004000C0004058020010E40E00408F
:10AF800030010010340100103C17004000E0014087
:10AF900000ED00E00400FA053C1C00200090D00306
:10AFA000044B1A5C012393404FF0A042C2F80C35C9
:10AFB000704700BF84D70100044B1A5C0123934003
:10AFC0004FF0A042C2F80835704700BF84D7010097
:10AFD00008B50020FFF7F0FF0120FFF7EDFF02208A
:10AFE000FFF7EAFFBDE808400320FFF7E5BFC2070F
:10AFF00008B501460CD54FF0A0430322C3F84427FF
:10B00000C3F84827C3F84C27C3F85027FFF7E0FFE1
:10B010008B070AD54FF0A0430C22C3F83427C3F89E
:10B020003827C3F83C27C3F8402708BD38B5074C7C
:10B03000051E04F1080318BF1C4623682BB11A68CB
:10B0400022605B6828469847F7E738BD082400204F
:10B0500020B9054B01225A70FFF7E8BF012802D141
:10B06000014A9070F8E770470024002020B9034B94
:10B0700001225A70FFF7DABF704700BF002400209A
:10B0800038B50B4C237883B90A486360A360236109
:10B09000E36000F0A3F8054601F074FE08B900F083
:10B0A000A9F801232370284638BD8525FBE700BF9A
:10B0B0000024002051B0010037B50B4C00230DF1E6
:10B0C00007008DF80730FFF74DFAE368013BE360B6
:10B0D000E56815B900F0A2F8A5709DF80700FFF724
:10B0E00065FA03B030BD00BF00240020012813B56D
:10B0F00008D003281CD018B9104B0122C3F88020B7
:10B1000002B010BD0E4C00230DF107008DF8073082
:10B11000FFF728FA23780BB9FFF7B2FFE3689DF831
:10B1200007000133E3600123A370FFF73FFAE7E76D
:10B1300000F060F8FFF7C0FFE2E700BF00E100E0C9
:10B14000002400201FB503788DF800304368019378
:10B15000037A8DF80830C368054A0393054B6846A7
:10B1600053F8213052F82110984705B05DF804FBE0
:10B170001424002018240020F0B506460F4B16F8C2
:10B1800004CB43F82C200E4B17460A6943F82C20B9
:10B190000C460FCC89B06D460FC594E80F00002F08
:10B1A00085E80F00074ACDF810C008BF3A46694647
:10B1B000304600F011FB09B0F0BD00BF182400209C
:10B1C0001424002045B1010000F18040002382B02A
:10B1D000036003680193019B02B07047044B024671
:10B1E000187918B91A6001229A8070478520704733
:10B1F0001C240020084B1A68D20706D4E02283F8EA
:10B2000000230122C3F880211A604FF080430122FD
:10B21000C3F81825704700BF00E100E0044B01228D
:10B220001A604FF08042D2F81834DB03FBD4704729
:10B230000C00004010B5124B1B6873B14FF48070C6
:10B24000FFF7C2FF4FF080430122C3F808230D4BE4
:10B25000587910B95A711B6898470B4B1B6873B12A
:10B260004FF48270FFF7B0FF4FF080430222C3F823
:10B270000823044BBDE810401B680120184710BD8F
:10B28000000100401C2400200401004000F1804027
:10B2900000F5C040002382B0036003680193019B66
:10B2A00002B07047800000F1A040D0F8002722F4DF
:10B2B0004032C0F80027D0F8003743EA0143C0F815
:10B2C00000377047054B4FF0FF32072843F8202026
:10B2D00084BFC01880F84820704700BF2424002095
:10B2E00010B5184C94F8583053BB04F130032021AA
:10B2F000FF22013911F0FF0103F8012BF9D1C8B287
:10B30000FFF7E0FF01310C29F9D1042200210E489A
:10B3100001F0DAFE0D4BE02283F806234022C3F849
:10B3200080214FF4BE701A60FFF7B0FF084B4FF05A
:10B330000042C3F80423012384F85830002010BDD4
:10B340000820FCE7242400207824002000E100E00D
:10B3500000600040034B93F85800003818BF0120EC
:10B36000704700BF24240020F0B5374E0546301842
:10B3700090F93000002864DA8878C0F34000002893
:10B380000BBF082300230C240824A34201D104206E
:10B39000F0BD56F8237001373FD1741946F82320C9
:10B3A00084F8303010B9F21882F848508A78500783
:10B3B00013D4D40733D5AA0002F1A042D2F8000773
:10B3C00020F00200C2F800072048EA0805F007074D
:10B3D0000124BC40875C3C4384548A780C7812F08A
:10B3E000020025D09B0003F1804303F5C0432A02ED
:10B3F000D3F8101521F4473121F44071C3F810152A
:10B400002404D3F8101502F4F85204F44034224313
:10B410000A43C3F810250020BAE70133B5E748789E
:10B4200005F5E0724FF0A044800044F82200CBE71D
:10B43000083B334493F8502042EA841483F8504088
:10B44000A6E70820A4E700BF2424002078240020D9
:10B4500038B51F4C251895F93020072A16DD2244EF
:10B4600092F848309B09032B0BD14FF0A043D3F83F
:10B470001015C14001F001010231BDE83840FFF76D
:10B4800011BF012B0CBF02210321F6E7D3B2072B1A
:10B490001CD8930003F1804303F5C043D3F8100593
:10B4A00040F00100C3F8100502F14000800080B2B6
:10B4B000FFF7ECFE51B195F9303054F823302BB141
:10B4C000012303FA02F2034BC3F8042338BD00BF83
:10B4D00024240020006000400E4B034493F93020E8
:10B4E000072A02DD0021FFF7DDBED3B2072B10D8FB
:10B4F000930003F1804303F5C043D3F8101521F006
:10B500000101C3F81015012303FA02F2024BC3F83C
:10B510000823704724240020006000404FF0A0431F
:10B52000D3F8103523FA00F000F001007047000056
:10B530002DE9F04F87B000245A4D03944FF48072E8
:10B54000012102F1804303F5C04390B21B68012B37
:10B5500006D1D5F804330B4202D0FFF797FE0C4317
:10B560000432B2F5907F4FEA4101EAD14E4B1B689D
:10B57000012B0AD14FF4BE70FFF788FE4FF0A043B5
:10B5800044F00044D3F81035039314F0FF0F1AD0A1
:10B59000464F00250126344210D0AB0003F1804312
:10B5A00003F5C043D3F81005D3F8101557F825302C
:10B5B00023B1C1F30141C0F3042098470135082DA0
:10B5C0004FEA4606E7D1002C65DA00214FF0FF3341
:10B5D000CDE90413354D01274FF0000A344ED14612
:10B5E0004FF0A04816F9013B5A1C45D0C3F3C201E5
:10B5F00006AA5018DCB210F8042C03F03F0B03F03D
:10B60000070307FA03F31A4236D005EB0B02A4092D
:10B6100092F9302055F8222052B9032C2CD10DF18B
:10B62000100E1EF801C04CEA030C0EF801C001E038
:10B63000032CF4D00BF5E07110F80C0C58F8211025
:10B640001842C1F3014105D0022915D1032C0FD1B5
:10B65000214604E003290FD1032C09D102215846C9
:10B66000019209F10109FFF71DFE019A5FFA89F9BC
:10B6700012B12146584690470AF1010ABAF1040F67
:10B68000B0D1B9F1000F06D04FF0A043039AD3F820
:10B690001035934202D107B0BDE8F08F0393049BAD
:10B6A000059399E7006000407C610040242400205D
:10B6B000742400200020704770470023435082B05C
:10B6C00043580193019B02B0704700001FB501234E
:10B6D0008DF80030054B8DF8080001916846D3E9DC
:10B6E0000012904705B05DF804FB00BF80240020E5
:10B6F0007FB5374AD2F82461002E47D010464FF468
:10B700009271FFF7DAFF02238DF80030D2F880340F
:10B71000C2F880340393D2F83C358DF808302D4BB5
:10B72000DA6801920022C3E906226846D3E90012D2
:10B7300090472748D0F844316BB14FF4A271FFF71E
:10B74000BCFF244B9A6932B100229A61D0F83C05C3
:10B75000D968FFF7BBFF1E48D0F82031A3B14FF4E2
:10B760009071FFF7AAFF1B4B5A696AB1D0F84C15CC
:10B770008DF80810002299688DF8002001915A6117
:10B780006846D3E90012904704B070BDD2F810317A
:10B79000002BCED04FF488711046FFF78EFF0D4B73
:10B7A000D2F83C0599698842C3D1DC69D96864B193
:10B7B000D2F8005225F02005C2F800521A699C61A7
:10B7C000DA60DE61FFF782FFB3E79C61FAE700BF52
:10B7D00000200040802400202DE9F843914606799E
:10B7E000604A242303FB0623054693F820300C46C9
:10B7F0009046002B40F0B1805B490068FFF75AFF8C
:10B800000746002840F0AB802268501C0BD0012373
:10B8100093404FF0A0420321C2F80835236803F596
:10B82000E07342F823106368591C1FBF03F5E073EF
:10B830004FF0A042002142F823102B68A269C3F800
:10B840002425217D637D2A680B43C2F86C35D4E939
:10B8500000212B68C3F80C25C3F81415237D012B98
:10B860001FD1A3685A1C1FBF4FF0A04203F5E0731D
:10B87000002142F82310E268531C0BD001239340AF
:10B880004FF0A0420321C2F80835E36803F5E073E6
:10B8900042F82310D4E902122B68C3F80825C3F834
:10B8A00010152423734308EB0302C2F804902269A5
:10B8B00048F80320B9F1000F3ED02868227F4FF4EA
:10B8C0008871FFF7FAFE28684FF49071FFF7F5FED4
:10B8D00028684FF49271FFF7F0FE4FF4A2712868C8
:10B8E000FFF7EBFE2B682149C3F804132B68190BF3
:10B8F00043F30733002BAEBF03F160431C4B01F051
:10B900000F014FEA4212D2B2AABF03F561435A5463
:10B9100083F800232B68C3F3043143F3C43323F0CB
:10B92000604323F0030303F1604303F56143012205
:10B930008A40C3F880211A602B680822C3F80025CA
:10B94000242303FB06860023C6E906337361012323
:10B9500086F820303846BDE8F8830827FAE7112733
:10B96000F8E700BF80240020F1B6010010030200B8
:10B9700014ED00E0F8B5036804792F4D0022C3F8F8
:10B980000025242303FB04535B6883B103682B4A1F
:10B99000C3F80823026842F3073301215B09C2F3AD
:10B9A000043201FA02F22033254941F823200368CA
:10B9B0004FF0FF3CD3F80C75D3F81465D3F8082585
:10B9C000D3F81015C3F80CC5C3F814C50368674550
:10B9D000C3F808C518BF07F5E077C3F810C51EBF48
:10B9E0004FF0A0434FF0020C43F827C0771C1FBF55
:10B9F0004FF0A04306F5E076022743F826704E1C70
:10BA00001FBF01F5E0714FF0A043022643F821600B
:10BA1000531C1FBF4FF0A04302F5E072022143F810
:10BA200022100068FFF748FE242303FB0454002380
:10BA300084F820306360F8BD8024002010030200E9
:10BA400000E100E001F06043B3F1005F2DE9F04157
:10BA5000054634D11C4B0779242606FB0736984649
:10BA6000746974BB7261B16000684FF49071FFF744
:10BA700024FE4FF4AC712868FFF71FFE2B68726933
:10BA8000B168C3F84415C3F848252B6801229A60B1
:10BA900073686BB92B68D3F82021D3F8584152B999
:10BAA000002CF8D00F24242303FB078700237B619D
:10BAB0002046BDE8F081002C18BF0F24F3E71024C6
:10BAC000F6E71124F4E700BF8024002072DF7047FE
:10BAD00073DF704776DF70477ADF70477CDF70472F
:10BAE0007FDF70478FDF7047B1DF7047FEF748BADE
:10BAF00008B5064B01211878FFF7EAFF08B1FEF7F9
:10BB00003FFABDE808400020FFF74ABA581C002061
:10BB100013B50388212B044650D007D8112B2ED003
:10BB2000132B43D0102B0CD002B010BD522B4DD094
:10BB3000562B01D03B2BF7D1A0881321FFF7CAFF6A
:10BB400018E0264B26491888000440F00300FDF752
:10BB50006BFF0120FFF724FA0020FFF72DFA214B9D
:10BB6000A1882148198000F025FF08B1FEF708FAE6
:10BB7000FEF7D6F90028D7D0FEF702FAD4E7174B24
:10BB80001A491888000440F00300FDF74DFF01201A
:10BB9000FFF712FA134B4FF6FF721A80FEF7D6F931
:10BBA00008B1FEF7EDF9FFF7A3FFBDE70D4800234D
:10BBB0001A4685210088FFF793FFDBE7002301A9E0
:10BBC0008088ADF80430FFF78DFFD3E705480023E8
:10BBD0001A4619460088FFF787FFCBE7D41C0020E0
:10BBE000A5D701005A1C00200C250020AFD701006A
:10BBF00008B503784BB9054B3B211888FFF76AFF5E
:10BC000018B1BDE80840FEF7BBB908BD5A1C0020BA
:10BC10000D2810B50C4618D10E4B0F49188800049A
:10BC200040F00300FDF700FF0C4B0D491888224639
:10BC300000F0F6FF30F008020BD043F2020290420F
:10BC400007D043F20142904203D0BDE81040FEF716
:10BC500097B910BDD41C0020BCD701005A1C00208D
:10BC6000F424002010B50220094C52B1FFF798F9D6
:10BC7000208808490004BDE8104040F00300FDF7AB
:10BC8000D3BEFFF799F9208803490004F3E700BF0A
:10BC9000D41C0020D6D70100E7D70100FEF770B909
:10BCA00000B54FF40041A7B00020FDF705FD08B135
:10BCB000FEF766F9FDF724FC0120FFF798F9FEF77F
:10BCC000B7FB08B1FEF75CF9694840F266620121F2
:10BCD000FEF7D2F808B1FEF753F9FEF7BBFF08B143
:10BCE000FEF74EF901F008F808B1FEF749F9002314
:10BCF00017A90120179301F08FF808B1FEF740F95A
:10BD000017A801F031F908B1FEF73AF911235948A3
:10BD10008DF8203001F0E8F9564982B208A8FFF703
:10BD2000DDFE08B1FEF72CF90822002117A801F06A
:10BD3000CBF9514A4FF0C87317A8CDE91723FFF785
:10BD4000CBFE08B1FEF71CF94C48002100F064FD61
:10BD500008B1FEF715F9002308934948494B17939A
:10BD600017A900F015FE08B1FEF70AF9464B47483F
:10BD7000089308A900F094FE08B1FEF701F941F21A
:10BD80002353ADF80430414B414C9B7C8DF8063079
:10BD90003C22002108A801F097F902238DF82030F9
:10BDA0003C2240F20163002117A8ADF8223001F0D7
:10BDB0008BF922460123ADF86C3052F8041B01AB1D
:10BDC00008A81C9300F0A6F908B1FEF7D9F8314A8B
:10BDD000A16817A800F09EF908B1FEF7D1F8182263
:10BDE000002102A801F070F900230122ADF81430FF
:10BDF00003934FF480738DF80820ADF81C3024496C
:10BE00002548402302AA0493FFF760FE08B1FEF71D
:10BE1000B7F81C22002117A801F056F900234FF4AF
:10BE20002022CDE91732ADF86A304FF420328DF878
:10BE30006C301A4B19921C930322194B8DF8682011
:10BE400017A81D9300F024FC08B1FEF799F8154BD4
:10BE500015491888000440F00300FDF7E5FDFFF7E1
:10BE600047FEFDF78DFC0028FBD1FEF709FFF8E740
:10BE7000401C0020F9D701005000A000E42400205D
:10BE80000C250020EDBA010065BC0100F42400205F
:10BE9000481C0020541C0020581C0020F1BB01004D
:10BEA0009DBC0100D41C002007D801000369C168B3
:10BEB0008B429DBF8268D21802F1FF3203F1FF333B
:10BEC00094BF501A581A70472DE9F843D0E90294EC
:10BED0000546A9EB04084068904520440F461444E9
:10BEE00004D901F0E3F8EC60BDE8F8834246A4EB26
:10BEF000090401F0DBF86868224607EB0801F0E767
:10BF00002DE9F843C5680646894617464FF00008F4
:10BF10003469B3687068A54228BFE418013C621B0D
:10BF20005C1BBC4228BF3C46944228BF144649468D
:10BF30002844224601F0BAF8B3682544AB4208BF52
:10BF400000253F1BA044A144F560E1D14046BDE877
:10BF5000F883000010B5114C114AA2610223C4E914
:10BF60000433104BE361A2644FF400730E4A0F498F
:10BF70002362E26400231022E01DA3626362E36295
:10BF8000A3656365E365226501F0A6F808492046CC
:10BF900001F0A2F82023A37110BD00BF08280020E3
:10BFA0001FD80100282500201825002028D80100CE
:10BFB0002CD80100F8B5184C182300FB033503FBFF
:10BFC00000402544C46A012C0F4616460FD0022CAF
:10BFD0001AD0F4B92846FFF769FF864205D83246E1
:10BFE00039462846FFF770FF34462046F8BD2846FC
:10BFF000FFF75CFF8642344628BF04462246394696
:10C000002846FFF761FFF0E72846BDE8F840FFF754
:10C0100077BF0024E9E700BF08280020FFF79ABF98
:10C020006DDF704779DF70477DDF704764DF7047F1
:10C030002DE9F04F85B000250E9CBDF83CB0B4F85A
:10C0400000A00191074690461E46A9463A884A45F7
:10C050000DDC45B12388013BA3EB0A039BB2FF2B08
:10C060003AD806F80A30002005B0BDE8F08F7A68AB
:10C0700052F82900039000220DF10B0103A8FFF7ED
:10C08000D5FF0028F0D19DF80B20424521D1228810
:10C09000002D14BF0020022002EB08010144594585
:10C0A0001ADC3DB9013292B2019B2280B35422883E
:10C0B0000132228022880DF10B01324403A8FFF7E0
:10C0C000B5FF0028D0D121889DF80B200A4422809A
:10C0D000012509F10109B9E70C20C5E72DE9F34174
:10C0E000089FBDF824801546CDE900780222044659
:10C0F0001E46FFF79DFF50B93346102229462046C1
:10C10000CDE9087802B0BDE8F041FFF791BF02B079
:10C11000BDE8F0812DE9F04F00231788138090F8D7
:10C120002D3085B006460D46144653B3082F01D86E
:10C130000C2007E102A8FFF773FF002840F00281FE
:10C1400023880822EA54238801339BB21B222380D0
:10C15000EA542088013080B2208006220DF10901C6
:10C16000284400F0A3FF23889DF8082006339BB2E3
:10C1700012F0FE0218BF01222380EA542388013303
:10C180002380B378FBB123880433BB42D0D802A804
:10C19000FFF748FF002840F0D58023880322EA54A7
:10C1A000238801339BB219222380EA542388BDF8E7
:10C1B000082001339BB2E9182380EA54120A4A701E
:10C1C000238802332380F2789AB12388D91CB9429C
:10C1D000AED80221E954238801339BB20121238088
:10C1E000E95423880B449BB22380EA5423880B44F0
:10C1F00023807268AAB12388D91CB94298D8022139
:10C2000092F90020E954238801339BB20A2123804C
:10C21000E954238801339BB22380EA5423880133F5
:10C2200023803389002B40F08180338A53B1CDE9DC
:10C2300000472B460722032106F11000FFF74EFFAF
:10C2400000287FD1338B53B1CDE900472B4615220F
:10C25000142106F11800FFF741FF002872D1326A5D
:10C26000002A72D1D6F82480B8F1000F30D0B8F887
:10C2700004302188981C8A1C0244BA423FF658AF09
:10C28000FE283FF655AF03336B54238801339BB22E
:10C29000FF222380EA54238801339BB22380B8F81D
:10C2A0000020EA54E918120A4A702088023080B24D
:10C2B0002080B8F804205AB1D8F8081000294ED0D0
:10C2C000284400F0F3FE2388B8F8042013442380A8
:10C2D00096F82C30002B7DD1307898B33388012B21
:10C2E0003DD0228802F1020CBC453FF621AF012867
:10C2F00005D17378023313449F42FFF419AF023F14
:10C30000BF1ABFB202A905EB0C00ADF80870FFF729
:10C310008BFEB8B93378022B40F09F80BDF808300F
:10C32000BB4240F2B580ADF808709FE0CDE9004710
:10C330002B460622022106F10800FFF7CFFE002857
:10C340003FF473AF05B0BDE8F08FB4F800C00CF156
:10C350000603BB423FF6ECAE1188052901D8072041
:10C36000F0E76FF4486E01EB0E039BB24FF27D3E97
:10C370007345F4D95388052BF1D96FF44860181828
:10C3800080B27045EBD94FF6FF70814203D08342F3
:10C3900001D09942E3D8052305F80C3023880133F6
:10C3A0009BB212212380E954238801339BB223805E
:10C3B0001188E954E818090A4170238802339BB2B6
:10C3C00023805288EA54E918120A4A7023880233FB
:10C3D000238047E7B36A002BC1D04FF000094FF02C
:10C3E0000C0A4FF0160B96F82C305FFA89F2934244
:10C3F0007FF672AFB16A0AFB02F201EB0208B8F8ED
:10C400000430981CFE283FF693AE208803332B544B
:10C41000238801339BB2238005F803B023880133BE
:10C420009BB223808A5AEA54E918120A4A7020887B
:10C43000023080B22080B8F804205AB1D8F8081031
:10C4400000298CD0284400F031FE2388B8F804205D
:10C450001344238009F10109C5E7012B7FF463AF81
:10C4600073789F42FFF45FAFADF808300821BDF844
:10C470000830FE2B3FF65CAE22880133AB54228895
:10C48000013292B22280A95422881344238059E7B2
:10C490000921ECE775DF704776DF70477ADF704778
:10C4A0007BDF7047034B1A8882420CBF184600207E
:10C4B000704700BF44270020024B9B6903B1184717
:10C4C000704700BF2827002073B585B22846FFF7C4
:10C4D000E9FF044670B1164E027A337B9A420BD2C2
:10C4E00000F10A012846FFF7D5FFE8B1112801D075
:10C4F000FFF7E2FF02B070BD00230372337C43B14B
:10C500003B212846FFF7C8FF30F0080301D0FFF7B2
:10C51000D3FF7369002BEDD000228DF80420ADF815
:10C52000065001A89847E5E7237A01332372E1E733
:10C530002827002013B50B46497A02460E4869B9F0
:10C54000D0E901101C7A002C18BF01465868FDF78D
:10C55000B1FF08B1FFF7B0FF02B010BD00211972A2
:10C560004369002BF8D001218DF80410ADF80620A6
:10C5700001A89847F0E700BF282700204B880288D1
:10C580009A4213D842889A4210D380888A8840F20F
:10C59000F313984294BF031AC31A934206D800F2C9
:10C5A000F310904234BF00200120704700207047F4
:10C5B00070B50388122B014659D004D8102B1ED019
:10C5C000112B44D070BD502BFCD12F4BC288DB897E
:10C5D0009A42F7D1038A022BF4D186883046FFF7BE
:10C5E00061FF05460028EDD001F1120000F00CF9C2
:10C5F00038BB6868FDF7A6FF0028E3D009E0C37BDD
:10C60000012BDFD14FF6FF70FFF74CFF054620B935
:10C610000420BDE87040FFF74FBF8E881B4A06809C
:10C62000002303721368C0F80A305368C0F80E3054
:10C6300010310A30FFF7A2FF134B6872DB89002B21
:10C64000C0D129463046BDE87040FFF773BF8088EF
:10C65000FFF728FF04460028B4D04068FDF772FFBA
:10C6600008B1FFF729FF4FF6FF732380AAE78688FA
:10C670003046FFF717FF05460028A3D008310A30DF
:10C68000FFF77CFF6872DCE728270020582700208E
:10C69000F8B5064648B305460FCD154F3C460FC4C6
:10C6A00095E8070084E807003068124C3C60B0B1A0
:10C6B000FFF7F4FEC0B93268136823605368636003
:10C6C0000D480E4A4FF6FF7303800D4B40F8043FB0
:10C6D0000021FDF7DDFE002818BF032004E02046FE
:10C6E000FFF7DEFE0028EBD0F8BD0E20FCE700BF10
:10C6F000282700205827002044270020C9C4010013
:10C700006027002073B50191019C06466CB100259D
:10C710002C46294601A8FDF772FF18B106EB440329
:10C7200001349D800135142DF3D13046346002B0C0
:10C7300070BD00002DE9F04703888488112B8CB070
:10C7400005463CD01A2B3FD0102B17D1284EB3688A
:10C75000DB43009371686846FDF77DFF009901A8EF
:10C76000FFF7D0FF0DF108094FF00008019B984535
:10C7700007D3132C13D90420FDF702FC0CB0BDE83D
:10C78000F08739F802AB00270137514606EB8700E6
:10C79000FDF72BFF1D2FF7D108F10108E6E715483B
:10C7A0002146FDF719FF14482146FDF715FFEB7BE5
:10C7B000012BE3D011482146FDF70EFFDEE70D48BF
:10C7C0002146FDF712FFD9E7037A0D481F2B4FEAE8
:10C7D0001315214606D9FDF7FFFE022D0948214613
:10C7E000EAD1EEE7FDF701FF06482146E9E700BF81
:10C7F0008027002088270020842700208C27002005
:10C800009027002094270020007800F00100704756
:10C81000A5DF7047B5DF704750B14FF017130360C5
:10C820001B2303711723C160C380836000207047FE
:10C830000E20704737B5034680880C4690B91A8899
:10C840003A2A62D010D8102A39D0112A59D0A37AA6
:10C8500043B1E1880020FFF7DBFF00286DD14FF4E2
:10C860008073638103B030BD552AF0D1DB88C9885D
:10C87000A072172B38BF17238B4228BF0B4623818A
:10C88000FFF7C8FF58B1344B1D88FEF739FA2D0465
:10C8900045F00105024631492846FDF7C9F8E37A1B
:10C8A000002BD4D1E368002BD1D040F67722009240
:10C8B0002289ADF80420694620469847C7E7DB7B0C
:10C8C000012B04BF0B88CB80C98823898B42BED241
:10C8D0000020FFF79DFF10B90123E372B7E711288D
:10C8E00002D10123A372B2E71B4B1D88FEF708FAA1
:10C8F0002D0445F00105024619492846FDF798F830
:10C90000A5E71723CB808B60A1E75B89CA88934298
:10C9100028BF1346172BCA6838BF17230B814AB1AB
:10C92000C97A39B140F677210091ADF804306946F3
:10C93000204690470023638189E7112892D0064B57
:10C940001C88FEF7DDF9240444F001040246044982
:10C950002046FDF76DF885E7E01C002064D8010053
:10C9600033D80100B0DF704766DF704710B5002193
:10C9700004464088FFF7F8FF034608B9237210BD4C
:10C98000112801D10123F9E76368BDE81040184779
:10C9900060B159B10378DE2B0AD00B684360DE2307
:10C9A00003704FF6FF734380002070470E207047DE
:10C9B0000820704728B10378DE2B04D14180002085
:10C9C00070470E20704708207047F0B5054685B0C7
:10C9D0000C46F1B1E8B10B78DE2B1AD182884B8876
:10C9E0009A4204D10B7A13B10846FFF7BFFF2B8898
:10C9F000112B32D0512B0ED0012B0AD12B7A012BC7
:10CA000007D1A9886288914203D123722046FFF79B
:10CA1000ADFF05B0F0BDAE886388B342F9D1AF7900
:10CA2000022FF6D1AD7B2B1F022BF2D80021102252
:10CA3000684600F049FB052D14BF4FF4C073002376
:10CA4000694630468DF80070ADF80430FFF78AFF74
:10CA50000028DED063689847DBE76388AA889A429B
:10CA600004BF4FF6FF736380D3E7A8DF7047AADFE8
:10CA70007047AEDF704762DF704710B40288502AFB
:10CA80000CD1C4884A88944208D1028A012A05D16F
:10CA90004B691BB1827C10BC8088184710BC704762
:10CAA0002DE9F0410B68436194B05C4B04AA054644
:10CAB00003F11007164618685968144603C4083372
:10CAC000BB422246F7D105F112013046FFF7D3FFF2
:10CAD0000446002840F09D80AB7C8DF80A302A4641
:10CAE00041F2235302A90120ADF80830FFF7BDFF42
:10CAF0000446002840F08D8001460322684600F07D
:10CB0000E3FA9DF80230012666F3420321461C2217
:10CB100041F211180DA88DF80230ADF8008000F038
:10CB2000D3FA9DF834300E9423F0120343F012032D
:10CB30008DF83430AB7C8DF80E30214641F2245311
:10CB4000032201A8CDE910441394ADF80C30CDF8C0
:10CB500048D000F0B9FA1123ADF804309DF8063042
:10CB600023F01F0343F002032146142208A88DF886
:10CB7000063000F0A9FA01ABCDE909362B4603AF28
:10CB800033F80A0B0C9408AA0DA90897ADF82C608D
:10CB9000FFF76DFF044600283BD101461C220DA87B
:10CBA00000F092FA9DF834300E9423F00A0343F01B
:10CBB0000A038DF83430AB7C8DF80E30214641F2FB
:10CBC0002553032201A8CDE91044CDE91244ADF864
:10CBD0000C3000F079FA9DF80630ADF8048023F0AF
:10CBE0001F0343F002032146142208A88DF80630E3
:10CBF00000F06AFA01ABCDE909362B4608AA33F8F2
:10CC0000020B0C940DA90897ADF82C60FFF72FFFCD
:10CC10000446204614B0BDE8F08100BFA0D8010052
:10CC200070B588B00D468DF8072010220446012605
:10CC30000DEB02000021ADF80E6000F045FA6B89A3
:10CC4000ADF810300DF10703079304A90DF10E03A1
:10CC500020468DF812600693FFF70BFF08B070BDF9
:10CC600010DF704713B5044609496846FEF714F80B
:10CC7000019808B902B010BDD0E9003120469847AC
:10CC800018B16846FEF711F8F2E71120F2E700BF8D
:10CC9000BCD8010013B5044607496846FDF7FCFF00
:10CCA000019B0BB902B010BD2046D3E9002190478B
:10CCB0006846FDF7FAFFF3E7D4D801000C4A92F872
:10CCC00016333F2B4FEA53110DD904290BD0094BD2
:10CCD000996821B11A6842F480021A6070474FF4D3
:10CCE00080031360704742F20200FDF749B900BFAC
:10CCF00000E100E0FC270020F7B51C4F3C7894BB16
:10CD00001B4E012520463570FFF7ACFF112827D0B8
:10CD10002046FFF7BFFF174B8DF8034018680190BE
:10CD20000DF10300FDF71EFC134901A8FFF798FF62
:10CD30000446B0FA80F0400938709DF80300FDF712
:10CD400035FC6CB90D4B34701C700D4BE02283F830
:10CD5000162383F81523FFF7B1FF2846FFF79AFF44
:10CD6000204603B0F0BD0824FAE700BFF9270020F1
:10CD7000F8270020B8D801009D9F0100FA27002065
:10CD800000E100E0014B1878704700BFF927002050
:10CD900007B508496846FDF77FFF019B13B903B04B
:10CDA0005DF804FBD3E9002090476846FDF77DFF5E
:10CDB000F3E700BFC8D80100FFF7EABF60DF7047A4
:10CDC00069DF704761DF704730B5114B1B7891B058
:10CDD000E3B1104D34240DF1020103A8ADF8024077
:10CDE000FFF7F0FF70B9294601A8FDF755FF029B38
:10CDF000002BF0D003A8D3E90021904701A8FDF74C
:10CE000054FFF4E7052801D0FDF7BAF811B030BDA2
:10CE1000FB27002018DB010030B5054685B00C4625
:10CE2000002900F09180494B0B600C22002101A8E1
:10CE300000F04AF901238DF8063022688DF804507D
:10CE4000062301A92020ADF80830FFF7B9FF58B13B
:10CE50003F4B1D88FDF754FF2D0445F001050246A8
:10CE60003C492846FCF7E4FD0C22002101A800F013
:10CE70002BF9012322688DF8053001A94020FFF726
:10CE80009FFF58B1324B1D88FDF73AFF2D0445F046
:10CE90000105024630492846FCF7CAFD0C22002154
:10CEA00001A800F011F90A2322688DF8043001A9C5
:10CEB0000120FFF785FF58B1254B1D88FDF720FFA6
:10CEC0002D0445F00105024624492846FCF7B0FD33
:10CED0000C22002101A800F0F7F84FF4B06322689B
:10CEE000019301A9A120FFF76BFF58B1184B1D88D2
:10CEF000FDF706FF2D0445F00105024618492846B6
:10CF0000FCF796FD0C22002101A800F0DDF89DF849
:10CF1000043022686FF3000301A9A0208DF80430CB
:10CF2000FFF74EFF034660B1094B1C88FDF7E8FE92
:10CF3000240444F0010402460A492046FCF778FD27
:10CF40000023184605B030BD0E23FAE7181C002058
:10CF5000E81C0020E0D8010026D9010072D90100A8
:10CF6000BED901000FDA0100F8B504460768FFF7E3
:10CF700025FF2368BB42054620D91A4E1A4930883E
:10CF8000000440F00200FCF74FFD30882368174989
:10CF900000043A4640F00200FCF753FD4FF0805386
:10CFA0003088D3F80C31226811499B0203F10053F9
:10CFB00000049A1A40F00200FCF73AFD25B90D4B27
:10CFC00001221A702846F8BD064B28461C88FDF73A
:10CFD00097FE240444F00104024607492046FCF76A
:10CFE00027FDEFE7E81C002062DA010091DA01007A
:10CFF000C2DA0100FB270020ECDA01004BDF7047AA
:10D000001FB50D4C01A8FFF7F9FF70B9214602A822
:10D01000FDF742FE039B002BF4D00198D3E90021D9
:10D02000904702A8FDF741FEF4E7052801D0FCF780
:10D03000A7FF04B010BD00BF30DB010008B5074BEF
:10D04000044613B10021AFF30080054B1868836AD2
:10D0500003B19847204600F04FF800BF00000000E1
:10D0600040DC010070B50D4D0D4C641BA410002672
:10D07000A64209D10B4D0C4C00F040F8641BA410E3
:10D080000026A64205D170BD55F8043B98470136ED
:10D09000EEE755F8043B98470136F2E7BC1C002048
:10D0A000BC1C0020BC1C0020C01C00200A44914273
:10D0B00000F1FF3300D1704710B511F8014B03F8B0
:10D0C000014F9142F9D110BD02440346934200D171
:10D0D000704703F8011BF9E7034611F8012B03F829
:10D0E000012B002AF9D17047034613F8012B002ABF
:10D0F000FBD1181A01387047FEE700BFF8B500BF32
:10D10000F8BC08BC9E467047F8B500BFF8BC08BC28
:10D110009E4670470738FDD870470000F592010021
:10D1200061930100F1920100FFFFFFFFFFFFFFFF8E
:10D13000FFFFFFFFFFFFFFFF0000000000000000F7
:10D140000000D60107000000AD9401009594010095
:10D15000359401004261636B656E647320666C7583
:10D1600073686564006170700062616C6C6F632E3F
:10D170006C6F675F6D656D706F6F6C001B5B306D02
:10D18000002573001B5B313B33316D0025734C6F01
:10D1900067732064726F7070656420282564292588
:10D1A000730D0A003C25733E2025733A200020258C
:10D1B00030327800202020007C002563001B5B318A
:10D1C0003B33306D001B5B313B33326D001B5B31F9
:10D1D0003B33336D001B5B313B33346D001B5B31E4
:10D1E0003B33356D001B5B313B33366D001B5B31D0
:10D1F0003B33376D007761726E696E6700696E66EA
:10D200006F006465627567007CD10100BDD10100CB
:10D2100084D10100C5D10100CDD10100D5D10100DB
:10D22000DDD10100E5D10100EDD1010000000000D9
:10D230004AD20100F5D10100FDD1010002D2010066
:10D2400094220020466174616C206572726F7200D6
:10D2500053797374656D20726573657400000738C7
:10D26000FDD87047303132333435363738394142A2
:10D27000434445467077725F6D676D74000000002F
:10D2800050DC010050DC0100040000004E52465FFB
:10D2900053554343455353004E52465F4552524FF8
:10D2A000525F5356435F48414E444C45525F4D498F
:10D2B0005353494E47004E52465F4552524F525FBC
:10D2C000534F46544445564943455F4E4F545F457E
:10D2D0004E41424C4544004E52465F4552524F52D9
:10D2E0005F494E5445524E414C004E52465F4552A6
:10D2F000524F525F4E4F5F4D454D004E52465F4577
:10D3000052524F525F4E4F545F464F554E44004E5F
:10D3100052465F4552524F525F4E4F545F535550E5
:10D32000504F52544544004E52465F4552524F5260
:10D330005F494E56414C49445F504152414D004E69
:10D3400052465F4552524F525F494E56414C4944F6
:10D350005F5354415445004E52465F4552524F521E
:10D360005F494E56414C49445F4C454E4754480036
:10D370004E52465F4552524F525F494E56414C49BC
:10D38000445F464C414753004E52465F4552524F10
:10D39000525F494E56414C49445F44415441004E0E
:10D3A00052465F4552524F525F444154415F534988
:10D3B0005A45004E52465F4552524F525F54494DB6
:10D3C000454F5554004E52465F4552524F525F4EA4
:10D3D000554C4C004E52465F4552524F525F464F9D
:10D3E0005242494444454E004E52465F4552524FC8
:10D3F000525F494E56414C49445F41444452004EAD
:10D4000052465F4552524F525F42555359004E5259
:10D41000465F4552524F525F434F4E4E5F434F550A
:10D420004E54004E52465F4552524F525F52455342
:10D430004F5552434553004E52465F4552524F524C
:10D440005F4D4F44554C455F4E4F545F494E4954D4
:10D4500049414C495A4544004E52465F4552524F4D
:10D46000525F4D555445585F494E49545F464149B6
:10D470004C4544004E52465F4552524F525F4D5507
:10D480005445585F4C4F434B5F4641494C4544001F
:10D490004E52465F4552524F525F4D555445585F6C
:10D4A000554E4C4F434B5F4641494C4544004E520C
:10D4B000465F4552524F525F4D555445585F434F5A
:10D4C0004E445F494E49545F4641494C4544004EE5
:10D4D00052465F4552524F525F4D4F44554C455F47
:10D4E000414C52454144595F494E495449414C4988
:10D4F0005A4544004E52465F4552524F525F535474
:10D500004F524147455F46554C4C004E52465F4591
:10D5100052524F525F4150495F4E4F545F494D50F8
:10D520004C454D454E544544004E52465F4552527F
:10D530004F525F464541545552455F4E4F545F45EB
:10D540004E41424C4544004E52465F4552524F5266
:10D550005F494F5F50454E44494E47004E52465F2B
:10D560004552524F525F4452565F5457495F45529D
:10D57000525F4F56455252554E004E52465F4552ED
:10D58000524F525F4452565F5457495F4552525F63
:10D59000414E41434B004E52465F4552524F525FFF
:10D5A0004452565F5457495F4552525F444E41437F
:10D5B0004B004E52465F4552524F525F424C455FC0
:10D5C000495053505F52585F504B545F5452554E20
:10D5D0004341544544004E52465F4552524F525FBC
:10D5E000424C455F495053505F4348414E4E454C75
:10D5F0005F414C52454144595F455849535453008B
:10D600004E52465F4552524F525F424C455F495021
:10D6100053505F4C494E4B5F444953434F4E4E4528
:10D6200043544544004E52465F4552524F525F426A
:10D630004C455F495053505F504545525F52454AF3
:10D64000454354454400556E6B6E6F776E2065728E
:10D65000726F7220636F64650000000000000000BC
:10D660008CD201000100000098D2010002000000ED
:10D67000B6D2010003000000D7D201000400000070
:10D68000EAD2010005000000FBD201000600000004
:10D690000FD301000700000027D30100080000009D
:10D6A0003FD301000900000057D301000A00000029
:10D6B00070D301000B00000088D301000C000000B3
:10D6C0009FD301000D000000B3D301000E00000045
:10D6D000C5D301000F000000D4D3010010000000EA
:10D6E000E8D3010011000000FFD301001200000088
:10D6F0000ED401001300000023D4010080000000BC
:10D7000037D401008100000058D4010082000000DD
:10D7100074D401008300000090D401008400000054
:10D72000AED4010085000000CFD4010086000000C7
:10D73000F4D40100900000000BD50100910000001E
:10D7400029D501009200000047D5010000820000A9
:10D750005CD50100018200007AD501000282000040
:10D7600096D5010000840000B2D5010001840000BC
:10D77000D6D501000284000000D601000384000019
:10D7800025D6010011121314636C6F636B00434CB8
:10D790004F434B004750494F54450050525300559A
:10D7A0004152544500436F6E6E6563746564004476
:10D7B0006973636F6E6E65637465640053656E6450
:10D7C00020627574746F6E20737461746520636871
:10D7D000616E67652E005265636569766564204CED
:10D7E0004544204F4E21005265636569766564208B
:10D7F0004C4544204F464621004E6F726469635F7A
:10D80000426C696E6B7900426C696E6B7920657849
:10D81000616D706C6520737461727465642E005460
:10D8200065726D696E616C005254540053454747F0
:10D8300045520073645F626C655F67617474635F17
:10D8400065786368616E67655F6D74755F72657139
:10D850007565737428292072657475726E6564200D
:10D8600025732E0073645F626C655F676174747307
:10D870005F65786368616E67655F6D74755F72651B
:10D88000706C7928292072657475726E6564202524
:10D89000732E006E72665F626C655F676174740000
:10D8A00023D1BCEA5F782315DEEF121200000000DE
:10D8B0006E72665F736468000100000710DD01008E
:10D8C00010DD01000800000000DD010010DD010096
:10D8D00008000000F8DC010000DD01000800000085
:10D8E00073645F626C655F6366675F736574282944
:10D8F0002072657475726E65642025732077686583
:10D900006E20617474656D7074696E6720746F2029
:10D9100073657420424C455F434F4E4E5F4346470C
:10D920005F4741502E0073645F626C655F6366679A
:10D930005F73657428292072657475726E65642042
:10D940002573207768656E20617474656D707469E5
:10D950006E6720746F2073657420424C455F4741A9
:10D96000505F4346475F524F4C455F434F554E54BF
:10D970002E0073645F626C655F6366675F736574D6
:10D9800028292072657475726E656420257320776E
:10D9900068656E20617474656D7074696E6720745B
:10D9A0006F2073657420424C455F434F4D4D4F4E81
:10D9B0005F4346475F56535F555549442E00736495
:10D9C0005F626C655F6366675F73657428292072A8
:10D9D000657475726E6564202573207768656E20A6
:10D9E000617474656D7074696E6720746F207365FF
:10D9F0007420424C455F47415454535F4346475F50
:10DA0000415454525F5441425F53495A452E00736A
:10DA1000645F626C655F6366675F73657428292065
:10DA200072657475726E6564202573207768656E03
:10DA300020617474656D7074696E6720746F2073F3
:10DA4000657420424C455F47415454535F434647F9
:10DA50005F534552564943455F4348414E4745440D
:10DA60002E00496E73756666696369656E7420522F
:10DA7000414D20616C6C6F636174656420666F72E8
:10DA80002074686520536F66744465766963652EFB
:10DA9000004368616E6765207468652052414D20BF
:10DAA0007374617274206C6F636174696F6E206649
:10DAB000726F6D203078257820746F20307825784B
:10DAC0002E004D6178696D756D2052414D2073694E
:10DAD0007A6520666F72206170706C696361746929
:10DAE0006F6E20697320307825782E0073645F6232
:10DAF0006C655F656E61626C65282920726574755E
:10DB0000726E65642025732E006E72665F736468A2
:10DB10005F626C650000000050DC010080DC0100E9
:10DB2000080000006E72665F7364685F736F630065
:10DB300048DC010050DC010008000000002020202B
:10DB400020202020202028282828282020202020AD
:10DB5000202020202020202020202020208810107D
:10DB600010101010101010101010101010040404D9
:10DB70000404040404040410101010101010414197
:10DB80004141414101010101010101010101010185
:10DB90000101010101010101101010101010424299
:10DBA0004242424202020202020202020202020255
:10DBB00002020202020202021010101020000000F5
:10DBC0000000000000000000000000000000000055
:10DBD0000000000000000000000000000000000045
:10DBE0000000000000000000000000000000000035
:10DBF0000000000000000000000000000000000025
:10DC00000000000000000000000000000000000014
:10DC10000000000000000000000000000000000004
:10DC200000000000000000000000000000000000F4
:10DC300000000000000000000000000000000000E4
:08DC40005C1C00200000000044
:08DC48006DB0010000000000B6
:10DC500035C701000000000035C80100E4240020A1
:10DC6000B1C5010000000000CBC901000C25002057
:10DC70007BCA0100F424002011BB01000000000059
:10DC80008ED701000000000094D7010000000000C2
:10DC90009BD70100000000009FD70100000000009A
:10DCA00065D101000000030369D1010000000003F9
:10DCB00088D701000000000093D801000000030392
:10DCC000B0D801000000030309DB010000000303DA
:10DCD00024DB01000000030374D2010000000000F7
:10DCE000981D0020601E0020681E0020A01D00203E
:08DCF000D81C00201800000000
:08DCF800EDB001000000000086
:10DD0000C9CD01000000000001D0010000000000AA
:08DD100030B5FF7F01000000A7
:10DD18000000000000200040000000001CD10100AD
:10DD2800000000000000000048D1010000000000D1
:10DD3800000000000090D0030D00030011BC01009A
:10DD4800A42400201F000000C32400201F0000009E
:10DD5800FF00FFFF000000000000000000000000BE
:10DD680000000000000000000000000000000000AB
:10DD7800000000000000000000000000000000009B
:10DD8800000000000000000000000000000000008B
:10DD9800000000000000000000000000000000007B
:10DDA800000000000000000000000000000000006B
:0CDDB80000000000259201000192010013
:10DDC400000000000000000000000000000000004F
:10DDD400000000000000000000000000000000003F
:10DDE400000000000000000000000000000000002F
:04000003100092B5A2
:00000001FF
